{
  "contractName": "Campaign",
  "abi": [
    {
      "inputs": [
        {
          "internalType": "address",
          "name": "_manager",
          "type": "address"
        },
        {
          "internalType": "string",
          "name": "_title",
          "type": "string"
        },
        {
          "internalType": "string",
          "name": "_description",
          "type": "string"
        },
        {
          "internalType": "uint256",
          "name": "_initialAmountGoal",
          "type": "uint256"
        },
        {
          "internalType": "uint256",
          "name": "_createdAt",
          "type": "uint256"
        },
        {
          "internalType": "uint256",
          "name": "_closedAt",
          "type": "uint256"
        }
      ],
      "payable": false,
      "stateMutability": "nonpayable",
      "type": "constructor"
    },
    {
      "constant": true,
      "inputs": [],
      "name": "amountCollected",
      "outputs": [
        {
          "internalType": "uint256",
          "name": "",
          "type": "uint256"
        }
      ],
      "payable": false,
      "stateMutability": "view",
      "type": "function"
    },
    {
      "constant": true,
      "inputs": [],
      "name": "amountDelegated",
      "outputs": [
        {
          "internalType": "uint256",
          "name": "",
          "type": "uint256"
        }
      ],
      "payable": false,
      "stateMutability": "view",
      "type": "function"
    },
    {
      "constant": true,
      "inputs": [],
      "name": "amountInitialGoal",
      "outputs": [
        {
          "internalType": "uint256",
          "name": "",
          "type": "uint256"
        }
      ],
      "payable": false,
      "stateMutability": "view",
      "type": "function"
    },
    {
      "constant": true,
      "inputs": [],
      "name": "amountSpended",
      "outputs": [
        {
          "internalType": "uint256",
          "name": "",
          "type": "uint256"
        }
      ],
      "payable": false,
      "stateMutability": "view",
      "type": "function"
    },
    {
      "constant": true,
      "inputs": [],
      "name": "closedAt",
      "outputs": [
        {
          "internalType": "uint256",
          "name": "",
          "type": "uint256"
        }
      ],
      "payable": false,
      "stateMutability": "view",
      "type": "function"
    },
    {
      "constant": true,
      "inputs": [],
      "name": "createdAt",
      "outputs": [
        {
          "internalType": "uint256",
          "name": "",
          "type": "uint256"
        }
      ],
      "payable": false,
      "stateMutability": "view",
      "type": "function"
    },
    {
      "constant": true,
      "inputs": [],
      "name": "description",
      "outputs": [
        {
          "internalType": "string",
          "name": "",
          "type": "string"
        }
      ],
      "payable": false,
      "stateMutability": "view",
      "type": "function"
    },
    {
      "constant": true,
      "inputs": [],
      "name": "dononrsCount",
      "outputs": [
        {
          "internalType": "uint256",
          "name": "",
          "type": "uint256"
        }
      ],
      "payable": false,
      "stateMutability": "view",
      "type": "function"
    },
    {
      "constant": true,
      "inputs": [
        {
          "internalType": "address",
          "name": "",
          "type": "address"
        }
      ],
      "name": "donors",
      "outputs": [
        {
          "internalType": "uint256",
          "name": "",
          "type": "uint256"
        }
      ],
      "payable": false,
      "stateMutability": "view",
      "type": "function"
    },
    {
      "constant": true,
      "inputs": [
        {
          "internalType": "uint256",
          "name": "",
          "type": "uint256"
        }
      ],
      "name": "donorsList",
      "outputs": [
        {
          "internalType": "address",
          "name": "personAddress",
          "type": "address"
        },
        {
          "internalType": "uint256",
          "name": "amount",
          "type": "uint256"
        }
      ],
      "payable": false,
      "stateMutability": "view",
      "type": "function"
    },
    {
      "constant": true,
      "inputs": [],
      "name": "fundRequestProcessTime",
      "outputs": [
        {
          "internalType": "uint256",
          "name": "",
          "type": "uint256"
        }
      ],
      "payable": false,
      "stateMutability": "view",
      "type": "function"
    },
    {
      "constant": true,
      "inputs": [],
      "name": "isActive",
      "outputs": [
        {
          "internalType": "bool",
          "name": "",
          "type": "bool"
        }
      ],
      "payable": false,
      "stateMutability": "view",
      "type": "function"
    },
    {
      "constant": true,
      "inputs": [],
      "name": "manager",
      "outputs": [
        {
          "internalType": "address",
          "name": "",
          "type": "address"
        }
      ],
      "payable": false,
      "stateMutability": "view",
      "type": "function"
    },
    {
      "constant": true,
      "inputs": [],
      "name": "title",
      "outputs": [
        {
          "internalType": "string",
          "name": "",
          "type": "string"
        }
      ],
      "payable": false,
      "stateMutability": "view",
      "type": "function"
    },
    {
      "constant": false,
      "inputs": [],
      "name": "donate",
      "outputs": [],
      "payable": true,
      "stateMutability": "payable",
      "type": "function"
    },
    {
      "constant": false,
      "inputs": [],
      "name": "withdrawDonation",
      "outputs": [
        {
          "internalType": "uint256",
          "name": "",
          "type": "uint256"
        }
      ],
      "payable": false,
      "stateMutability": "nonpayable",
      "type": "function"
    },
    {
      "constant": false,
      "inputs": [
        {
          "internalType": "string",
          "name": "_description",
          "type": "string"
        },
        {
          "internalType": "uint256",
          "name": "_amount",
          "type": "uint256"
        },
        {
          "internalType": "address[]",
          "name": "_recipientsAddress",
          "type": "address[]"
        },
        {
          "internalType": "uint256[]",
          "name": "_recipientsAmount",
          "type": "uint256[]"
        }
      ],
      "name": "createFundRequest",
      "outputs": [],
      "payable": false,
      "stateMutability": "nonpayable",
      "type": "function"
    },
    {
      "constant": false,
      "inputs": [
        {
          "internalType": "uint256",
          "name": "index",
          "type": "uint256"
        }
      ],
      "name": "disapproveFundRequest",
      "outputs": [],
      "payable": false,
      "stateMutability": "nonpayable",
      "type": "function"
    },
    {
      "constant": false,
      "inputs": [
        {
          "internalType": "uint256",
          "name": "index",
          "type": "uint256"
        }
      ],
      "name": "approveFundRequest",
      "outputs": [],
      "payable": false,
      "stateMutability": "nonpayable",
      "type": "function"
    },
    {
      "constant": false,
      "inputs": [
        {
          "internalType": "uint256",
          "name": "index",
          "type": "uint256"
        }
      ],
      "name": "processFundRequest",
      "outputs": [],
      "payable": false,
      "stateMutability": "nonpayable",
      "type": "function"
    },
    {
      "constant": true,
      "inputs": [
        {
          "internalType": "uint256",
          "name": "index",
          "type": "uint256"
        }
      ],
      "name": "getFundRequest",
      "outputs": [
        {
          "internalType": "string",
          "name": "",
          "type": "string"
        },
        {
          "internalType": "uint256",
          "name": "",
          "type": "uint256"
        },
        {
          "internalType": "uint256",
          "name": "",
          "type": "uint256"
        },
        {
          "internalType": "uint256",
          "name": "",
          "type": "uint256"
        },
        {
          "internalType": "uint256",
          "name": "",
          "type": "uint256"
        },
        {
          "internalType": "bool",
          "name": "",
          "type": "bool"
        },
        {
          "internalType": "bool",
          "name": "",
          "type": "bool"
        },
        {
          "internalType": "address[]",
          "name": "",
          "type": "address[]"
        },
        {
          "internalType": "uint256[]",
          "name": "",
          "type": "uint256[]"
        }
      ],
      "payable": false,
      "stateMutability": "view",
      "type": "function"
    },
    {
      "constant": true,
      "inputs": [],
      "name": "getSummary",
      "outputs": [
        {
          "internalType": "address",
          "name": "",
          "type": "address"
        },
        {
          "internalType": "string",
          "name": "",
          "type": "string"
        },
        {
          "internalType": "string",
          "name": "",
          "type": "string"
        },
        {
          "internalType": "uint256",
          "name": "",
          "type": "uint256"
        },
        {
          "internalType": "uint256",
          "name": "",
          "type": "uint256"
        },
        {
          "internalType": "uint256",
          "name": "",
          "type": "uint256"
        },
        {
          "internalType": "uint256",
          "name": "",
          "type": "uint256"
        },
        {
          "internalType": "uint256",
          "name": "",
          "type": "uint256"
        },
        {
          "internalType": "uint256",
          "name": "",
          "type": "uint256"
        },
        {
          "internalType": "uint256",
          "name": "",
          "type": "uint256"
        },
        {
          "internalType": "uint256",
          "name": "",
          "type": "uint256"
        },
        {
          "internalType": "uint256",
          "name": "",
          "type": "uint256"
        },
        {
          "internalType": "bool",
          "name": "",
          "type": "bool"
        }
      ],
      "payable": false,
      "stateMutability": "view",
      "type": "function"
    },
    {
      "constant": false,
      "inputs": [
        {
          "internalType": "uint256",
          "name": "processTime",
          "type": "uint256"
        }
      ],
      "name": "setFundRequestProcessTime",
      "outputs": [],
      "payable": false,
      "stateMutability": "nonpayable",
      "type": "function"
    },
    {
      "constant": false,
      "inputs": [],
      "name": "deactivate",
      "outputs": [],
      "payable": false,
      "stateMutability": "nonpayable",
      "type": "function"
    }
  ],
  "bytecode": "0x60806040523480156200001157600080fd5b506040516200326a3803806200326a833981810160405260c08110156200003757600080fd5b8101908080519060200190929190805160405193929190846401000000008211156200006257600080fd5b838201915060208201858111156200007957600080fd5b82518660018202830111640100000000821117156200009757600080fd5b8083526020830192505050908051906020019080838360005b83811015620000cd578082015181840152602081019050620000b0565b50505050905090810190601f168015620000fb5780820380516001836020036101000a031916815260200191505b50604052602001805160405193929190846401000000008211156200011f57600080fd5b838201915060208201858111156200013657600080fd5b82518660018202830111640100000000821117156200015457600080fd5b8083526020830192505050908051906020019080838360005b838110156200018a5780820151818401526020810190506200016d565b50505050905090810190601f168015620001b85780820380516001836020036101000a031916815260200191505b506040526020018051906020019092919080519060200190929190805190602001909291905050508181116200023a576040517f08c379a000000000000000000000000000000000000000000000000000000000815260040180806020018281038252602f8152602001806200323b602f913960400191505060405180910390fd5b6000831162000295576040517f08c379a000000000000000000000000000000000000000000000000000000000815260040180806020018281038252602e8152602001806200320d602e913960400191505060405180910390fd5b856000806101000a81548173ffffffffffffffffffffffffffffffffffffffff021916908373ffffffffffffffffffffffffffffffffffffffff1602179055508460019080519060200190620002ed92919062000403565b5083600290805190602001906200030692919062000403565b508260038190555081600c8190555080600d819055506203f480600b819055506001600e60006101000a81548160ff021916908315150217905550600060088190555060076040518060400160405280600073ffffffffffffffffffffffffffffffffffffffff16815260200160008152509080600181540180825580915050906001820390600052602060002090600202016000909192909190915060008201518160000160006101000a81548173ffffffffffffffffffffffffffffffffffffffff021916908373ffffffffffffffffffffffffffffffffffffffff16021790555060208201518160010155505050505050505050620004b2565b828054600181600116156101000203166002900490600052602060002090601f016020900481019282601f106200044657805160ff191683800117855562000477565b8280016001018555821562000477579182015b828111156200047657825182559160200191906001019062000459565b5b5090506200048691906200048a565b5090565b620004af91905b80821115620004ab57600081600090555060010162000491565b5090565b90565b612d4b80620004c26000396000f3fe60806040526004361061014b5760003560e01c806360713609116100b6578063a96271361161006f578063a9627136146109d4578063ca0cdea814610a56578063cf09e0d014610abb578063d2765c9414610ae6578063e81e1ccc14610b21578063ed88c68e14610b4c5761014b565b8063607136091461085d5780636a3d9a4a146108885780637284e416146108b3578063777016fb1461094357806396f8b38d1461096e5780639ef27b00146109a95761014b565b80634051ddac116101085780634051ddac14610445578063481c6a75146105be5780634a79d50c146106155780634dfa8434146106a557806351b42b001461081b5780635c8d7152146108325761014b565b80631b0f5fc21461015057806321464bfe1461018b57806322f3e2d4146101c657806326e97344146101f5578063332f7acf14610220578063372bfd9c1461024b575b600080fd5b34801561015c57600080fd5b506101896004803603602081101561017357600080fd5b8101908080359060200190929190505050610b56565b005b34801561019757600080fd5b506101c4600480360360208110156101ae57600080fd5b8101908080359060200190929190505050610e24565b005b3480156101d257600080fd5b506101db611145565b604051808215151515815260200191505060405180910390f35b34801561020157600080fd5b5061020a611158565b6040518082815260200191505060405180910390f35b34801561022c57600080fd5b5061023561115e565b6040518082815260200191505060405180910390f35b34801561025757600080fd5b506104436004803603608081101561026e57600080fd5b810190808035906020019064010000000081111561028b57600080fd5b82018360208201111561029d57600080fd5b803590602001918460018302840111640100000000831117156102bf57600080fd5b91908080601f016020809104026020016040519081016040528093929190818152602001838380828437600081840152601f19601f820116905080830192505050505050509192919290803590602001909291908035906020019064010000000081111561032c57600080fd5b82018360208201111561033e57600080fd5b8035906020019184602083028401116401000000008311171561036057600080fd5b919080806020026020016040519081016040528093929190818152602001838360200280828437600081840152601f19601f820116905080830192505050505050509192919290803590602001906401000000008111156103c057600080fd5b8201836020820111156103d257600080fd5b803590602001918460208302840111640100000000831117156103f457600080fd5b919080806020026020016040519081016040528093929190818152602001838360200280828437600081840152601f19601f820116905080830192505050505050509192919290505050611164565b005b34801561045157600080fd5b5061045a611786565b604051808e73ffffffffffffffffffffffffffffffffffffffff1673ffffffffffffffffffffffffffffffffffffffff16815260200180602001806020018d81526020018c81526020018b81526020018a81526020018981526020018881526020018781526020018681526020018581526020018415151515815260200183810383528f818151815260200191508051906020019080838360005b838110156105105780820151818401526020810190506104f5565b50505050905090810190601f16801561053d5780820380516001836020036101000a031916815260200191505b5083810382528e818151815260200191508051906020019080838360005b8381101561057657808201518184015260208101905061055b565b50505050905090810190601f1680156105a35780820380516001836020036101000a031916815260200191505b509f5050505050505050505050505050505060405180910390f35b3480156105ca57600080fd5b506105d361194f565b604051808273ffffffffffffffffffffffffffffffffffffffff1673ffffffffffffffffffffffffffffffffffffffff16815260200191505060405180910390f35b34801561062157600080fd5b5061062a611974565b6040518080602001828103825283818151815260200191508051906020019080838360005b8381101561066a57808201518184015260208101905061064f565b50505050905090810190601f1680156106975780820380516001836020036101000a031916815260200191505b509250505060405180910390f35b3480156106b157600080fd5b506106de600480360360208110156106c857600080fd5b8101908080359060200190929190505050611a12565b60405180806020018a81526020018981526020018881526020018781526020018615151515815260200185151515158152602001806020018060200184810384528d818151815260200191508051906020019080838360005b83811015610752578082015181840152602081019050610737565b50505050905090810190601f16801561077f5780820380516001836020036101000a031916815260200191505b50848103835286818151815260200191508051906020019060200280838360005b838110156107bb5780820151818401526020810190506107a0565b50505050905001848103825285818151815260200191508051906020019060200280838360005b838110156107fd5780820151818401526020810190506107e2565b505050509050019c5050505050505050505050505060405180910390f35b34801561082757600080fd5b50610830611d35565b005b34801561083e57600080fd5b50610847611e53565b6040518082815260200191505060405180910390f35b34801561086957600080fd5b50610872611e59565b6040518082815260200191505060405180910390f35b34801561089457600080fd5b5061089d611e5f565b6040518082815260200191505060405180910390f35b3480156108bf57600080fd5b506108c8611e65565b6040518080602001828103825283818151815260200191508051906020019080838360005b838110156109085780820151818401526020810190506108ed565b50505050905090810190601f1680156109355780820380516001836020036101000a031916815260200191505b509250505060405180910390f35b34801561094f57600080fd5b50610958611f03565b6040518082815260200191505060405180910390f35b34801561097a57600080fd5b506109a76004803603602081101561099157600080fd5b8101908080359060200190929190505050611f09565b005b3480156109b557600080fd5b506109be612041565b6040518082815260200191505060405180910390f35b3480156109e057600080fd5b50610a0d600480360360208110156109f757600080fd5b8101908080359060200190929190505050612047565b604051808373ffffffffffffffffffffffffffffffffffffffff1673ffffffffffffffffffffffffffffffffffffffff1681526020018281526020019250505060405180910390f35b348015610a6257600080fd5b50610aa560048036036020811015610a7957600080fd5b81019080803573ffffffffffffffffffffffffffffffffffffffff169060200190929190505050612098565b6040518082815260200191505060405180910390f35b348015610ac757600080fd5b50610ad06120b0565b6040518082815260200191505060405180910390f35b348015610af257600080fd5b50610b1f60048036036020811015610b0957600080fd5b81019080803590602001909291905050506120b6565b005b348015610b2d57600080fd5b50610b36612456565b6040518082815260200191505060405180910390f35b610b54612731565b005b60011515600e60009054906101000a900460ff16151514610bdf576040517f08c379a00000000000000000000000000000000000000000000000000000000081526004018080602001828103825260128152602001807f436f6e747261637420697320636c6f736564000000000000000000000000000081525060200191505060405180910390fd5b3373ffffffffffffffffffffffffffffffffffffffff166000809054906101000a900473ffffffffffffffffffffffffffffffffffffffff1673ffffffffffffffffffffffffffffffffffffffff1614610c84576040517f08c379a0000000000000000000000000000000000000000000000000000000008152600401808060200182810382526023815260200180612b906023913960400191505060405180910390fd5b6000600a8281548110610c9357fe5b9060005260206000209060080201905042600b54826006015401108015610cc257506007805490508160050154105b8015610cdd57508060070160009054906101000a900460ff16155b610d32576040517f08c379a0000000000000000000000000000000000000000000000000000000008152600401808060200182810382526070815260200180612ca76070913960800191505060405180910390fd5b60018160070160006101000a81548160ff0219169083151502179055508060010154600560008282540392505081905550806001015460066000828254019250508190555060008090505b8160030154811015610e1f57600082600201600083815260200190815260200160002090508060000160009054906101000a900473ffffffffffffffffffffffffffffffffffffffff1673ffffffffffffffffffffffffffffffffffffffff166108fc82600101549081150290604051600060405180830381858888f19350505050158015610e10573d6000803e3d6000fd5b50508080600101915050610d7d565b505050565b60011515600e60009054906101000a900460ff16151514610ead576040517f08c379a00000000000000000000000000000000000000000000000000000000081526004018080602001828103825260128152602001807f436f6e747261637420697320636c6f736564000000000000000000000000000081525060200191505060405180910390fd5b6000600960003373ffffffffffffffffffffffffffffffffffffffff1673ffffffffffffffffffffffffffffffffffffffff1681526020019081526020016000205411610f45576040517f08c379a0000000000000000000000000000000000000000000000000000000008152600401808060200182810382526022815260200180612bb36022913960400191505060405180910390fd5b600a805490508110610fbf576040517f08c379a00000000000000000000000000000000000000000000000000000000081526004018080602001828103825260198152602001807f46756e64205265717565737420646f6e27742065786973742e0000000000000081525060200191505060405180910390fd5b60001515600a8281548110610fd057fe5b906000526020600020906008020160070160009054906101000a900460ff16151514611047576040517f08c379a0000000000000000000000000000000000000000000000000000000008152600401808060200182810382526023815260200180612b116023913960400191505060405180910390fd5b6000600a828154811061105657fe5b906000526020600020906008020160040190508060003373ffffffffffffffffffffffffffffffffffffffff1673ffffffffffffffffffffffffffffffffffffffff16815260200190815260200160002060009054906101000a900460ff16156111415760008160003373ffffffffffffffffffffffffffffffffffffffff1673ffffffffffffffffffffffffffffffffffffffff16815260200190815260200160002060006101000a81548160ff021916908315150217905550600a828154811061111e57fe5b906000526020600020906008020160050160008154809291906001900391905055505b5050565b600e60009054906101000a900460ff1681565b60085481565b60045481565b42600d54118015611179575060035460045410155b6111ce576040517f08c379a0000000000000000000000000000000000000000000000000000000008152600401808060200182810382526025815260200180612a8c6025913960400191505060405180910390fd5b60011515600e60009054906101000a900460ff16151514611257576040517f08c379a00000000000000000000000000000000000000000000000000000000081526004018080602001828103825260128152602001807f436f6e747261637420697320636c6f736564000000000000000000000000000081525060200191505060405180910390fd5b3373ffffffffffffffffffffffffffffffffffffffff166000809054906101000a900473ffffffffffffffffffffffffffffffffffffffff1673ffffffffffffffffffffffffffffffffffffffff16146112fc576040517f08c379a0000000000000000000000000000000000000000000000000000000008152600401808060200182810382526023815260200180612b906023913960400191505060405180910390fd5b42600d54118015611311575060035460045410155b611366576040517f08c379a0000000000000000000000000000000000000000000000000000000008152600401808060200182810382526023815260200180612ab16023913960400191505060405180910390fd5b600083116113dc576040517f08c379a00000000000000000000000000000000000000000000000000000000081526004018080602001828103825260168152602001807f416d6f756e742063616e6e6f74206265207a65726f2e0000000000000000000081525060200191505060405180910390fd5b600082511180156113ee575060008151115b611443576040517f08c379a000000000000000000000000000000000000000000000000000000000815260040180806020018281038252602a815260200180612b34602a913960400191505060405180910390fd5b805182511461149d576040517f08c379a000000000000000000000000000000000000000000000000000000000815260040180806020018281038252603d815260200180612ad4603d913960400191505060405180910390fd5b8260055460065460045403031015611500576040517f08c379a0000000000000000000000000000000000000000000000000000000008152600401808060200182810382526032815260200180612b5e6032913960400191505060405180910390fd5b600080905060005b82518110156115365782818151811061151d57fe5b6020026020010151820191508080600101915050611508565b5083811461158f576040517f08c379a0000000000000000000000000000000000000000000000000000000008152600401808060200182810382526055815260200180612c0e6055913960600191505060405180910390fd5b600a6040518060c0016040528087815260200186815260200160008152602001600081526020014281526020016000151581525090806001815401808255809150509060018203906000526020600020906008020160009091929091909150600082015181600001908051906020019061160a9291906129e6565b506020820151816001015560408201518160030155606082015181600501556080820151816006015560a08201518160070160006101000a81548160ff0219169083151502179055505050506000600a6001600a80549050038154811061166d57fe5b90600052602060002090600802019050600081600201905060008090505b855181101561176c5760405180604001604052808783815181106116ab57fe5b602002602001015173ffffffffffffffffffffffffffffffffffffffff1681526020018683815181106116da57fe5b602002602001015181525082600083815260200190815260200160002060008201518160000160006101000a81548173ffffffffffffffffffffffffffffffffffffffff021916908373ffffffffffffffffffffffffffffffffffffffff160217905550602082015181600101559050508260030160008154809291906001019190505550808060010191505061168b565b508560056000828254019250508190555050505050505050565b60006060806000806000806000806000806000806000809054906101000a900473ffffffffffffffffffffffffffffffffffffffff1660016002600354600454600554600654600b54600c54600d54600854600a80549050600e60009054906101000a900460ff168b8054600181600116156101000203166002900480601f0160208091040260200160405190810160405280929190818152602001828054600181600116156101000203166002900480156118835780601f1061185857610100808354040283529160200191611883565b820191906000526020600020905b81548152906001019060200180831161186657829003601f168201915b50505050509b508a8054600181600116156101000203166002900480601f01602080910402602001604051908101604052809291908181526020018280546001816001161561010002031660029004801561191f5780601f106118f45761010080835404028352916020019161191f565b820191906000526020600020905b81548152906001019060200180831161190257829003601f168201915b50505050509a509c509c509c509c509c509c509c509c509c509c509c509c509c50909192939495969798999a9b9c565b6000809054906101000a900473ffffffffffffffffffffffffffffffffffffffff1681565b60018054600181600116156101000203166002900480601f016020809104026020016040519081016040528092919081815260200182805460018160011615610100020316600290048015611a0a5780601f106119df57610100808354040283529160200191611a0a565b820191906000526020600020905b8154815290600101906020018083116119ed57829003601f168201915b505050505081565b6060600080600080600080606080896001600a805490500111611a9d576040517f08c379a00000000000000000000000000000000000000000000000000000000081526004018080602001828103825260168152602001807f496e646578206973206f7574206f662072616e67652e0000000000000000000081525060200191505060405180910390fd5b6000600a8b81548110611aac57fe5b9060005260206000209060080201905060608160030154604051908082528060200260200182016040528015611af15781602001602082028038833980820191505090505b50905060608260030154604051908082528060200260200182016040528015611b295781602001602082028038833980820191505090505b50905060008090505b8360030154811015611bfb5783600201600082815260200190815260200160002060000160009054906101000a900473ffffffffffffffffffffffffffffffffffffffff16838281518110611b8357fe5b602002602001019073ffffffffffffffffffffffffffffffffffffffff16908173ffffffffffffffffffffffffffffffffffffffff168152505083600201600082815260200190815260200160002060010154828281518110611be257fe5b6020026020010181815250508080600101915050611b32565b508260000183600101548460030154856005015486600601548760070160009054906101000a900460ff168860040160003373ffffffffffffffffffffffffffffffffffffffff1673ffffffffffffffffffffffffffffffffffffffff16815260200190815260200160002060009054906101000a900460ff168888888054600181600116156101000203166002900480601f016020809104026020016040519081016040528092919081815260200182805460018160011615610100020316600290048015611d0c5780601f10611ce157610100808354040283529160200191611d0c565b820191906000526020600020905b815481529060010190602001808311611cef57829003601f168201915b505050505098509b509b509b509b509b509b509b509b509b505050509193959799909294969850565b3373ffffffffffffffffffffffffffffffffffffffff166000809054906101000a900473ffffffffffffffffffffffffffffffffffffffff1673ffffffffffffffffffffffffffffffffffffffff1614611dda576040517f08c379a0000000000000000000000000000000000000000000000000000000008152600401808060200182810382526023815260200180612b906023913960400191505060405180910390fd5b60065460045414611e36576040517f08c379a0000000000000000000000000000000000000000000000000000000008152600401808060200182810382526044815260200180612c636044913960600191505060405180910390fd5b6000600e60006101000a81548160ff021916908315150217905550565b60065481565b60055481565b60035481565b60028054600181600116156101000203166002900480601f016020809104026020016040519081016040528092919081815260200182805460018160011615610100020316600290048015611efb5780601f10611ed057610100808354040283529160200191611efb565b820191906000526020600020905b815481529060010190602001808311611ede57829003601f168201915b505050505081565b600b5481565b60011515600e60009054906101000a900460ff16151514611f92576040517f08c379a00000000000000000000000000000000000000000000000000000000081526004018080602001828103825260128152602001807f436f6e747261637420697320636c6f736564000000000000000000000000000081525060200191505060405180910390fd5b3373ffffffffffffffffffffffffffffffffffffffff166000809054906101000a900473ffffffffffffffffffffffffffffffffffffffff1673ffffffffffffffffffffffffffffffffffffffff1614612037576040517f08c379a0000000000000000000000000000000000000000000000000000000008152600401808060200182810382526023815260200180612b906023913960400191505060405180910390fd5b80600b8190555050565b600d5481565b6007818154811061205457fe5b90600052602060002090600202016000915090508060000160009054906101000a900473ffffffffffffffffffffffffffffffffffffffff16908060010154905082565b60096020528060005260406000206000915090505481565b600c5481565b42600d541180156120cb575060035460045410155b612120576040517f08c379a0000000000000000000000000000000000000000000000000000000008152600401808060200182810382526025815260200180612a8c6025913960400191505060405180910390fd5b60011515600e60009054906101000a900460ff161515146121a9576040517f08c379a00000000000000000000000000000000000000000000000000000000081526004018080602001828103825260128152602001807f436f6e747261637420697320636c6f736564000000000000000000000000000081525060200191505060405180910390fd5b6000600960003373ffffffffffffffffffffffffffffffffffffffff1673ffffffffffffffffffffffffffffffffffffffff1681526020019081526020016000205411612241576040517f08c379a0000000000000000000000000000000000000000000000000000000008152600401808060200182810382526022815260200180612bb36022913960400191505060405180910390fd5b600a8054905081106122bb576040517f08c379a00000000000000000000000000000000000000000000000000000000081526004018080602001828103825260198152602001807f46756e64205265717565737420646f6e27742065786973742e0000000000000081525060200191505060405180910390fd5b60001515600a82815481106122cc57fe5b906000526020600020906008020160070160009054906101000a900460ff16151514612343576040517f08c379a0000000000000000000000000000000000000000000000000000000008152600401808060200182810382526023815260200180612b116023913960400191505060405180910390fd5b600a818154811061235057fe5b906000526020600020906008020160040160003373ffffffffffffffffffffffffffffffffffffffff1673ffffffffffffffffffffffffffffffffffffffff16815260200190815260200160002060009054906101000a900460ff16612453576001600a82815481106123bf57fe5b906000526020600020906008020160040160003373ffffffffffffffffffffffffffffffffffffffff1673ffffffffffffffffffffffffffffffffffffffff16815260200190815260200160002060006101000a81548160ff021916908315150217905550600a818154811061243157fe5b9060005260206000209060080201600501600081548092919060010191905055505b50565b600060011515600e60009054906101000a900460ff161515146124e1576040517f08c379a00000000000000000000000000000000000000000000000000000000081526004018080602001828103825260128152602001807f436f6e747261637420697320636c6f736564000000000000000000000000000081525060200191505060405180910390fd5b60035460045410806124f4575042600d54115b612566576040517f08c379a000000000000000000000000000000000000000000000000000000000815260040180806020018281038252601c8152602001807f446f6e6174696f6e2063616e6e6f742062652077697468647261776e0000000081525060200191505060405180910390fd5b6000600960003373ffffffffffffffffffffffffffffffffffffffff1673ffffffffffffffffffffffffffffffffffffffff16815260200190815260200160002054905060008111612603576040517f08c379a0000000000000000000000000000000000000000000000000000000008152600401808060200182810382526039815260200180612bd56039913960400191505060405180910390fd5b60006007828154811061261257fe5b9060005260206000209060020201600101549050600081111561272c576000600960003373ffffffffffffffffffffffffffffffffffffffff1673ffffffffffffffffffffffffffffffffffffffff168152602001908152602001600020819055506007828154811061268157fe5b9060005260206000209060020201600080820160006101000a81549073ffffffffffffffffffffffffffffffffffffffff02191690556001820160009055505080600460008282540392505081905550600860008154809291906001900391905055503373ffffffffffffffffffffffffffffffffffffffff166108fc829081150290604051600060405180830381858888f1935050505015801561272a573d6000803e3d6000fd5b505b505090565b60011515600e60009054906101000a900460ff161515146127ba576040517f08c379a00000000000000000000000000000000000000000000000000000000081526004018080602001828103825260128152602001807f436f6e747261637420697320636c6f736564000000000000000000000000000081525060200191505060405180910390fd5b6000341415612831576040517f08c379a00000000000000000000000000000000000000000000000000000000081526004018080602001828103825260208152602001807f416d6f756e74206d7573742062652067726561746572207468616e207a65726f81525060200191505060405180910390fd5b6000600960003373ffffffffffffffffffffffffffffffffffffffff1673ffffffffffffffffffffffffffffffffffffffff1681526020019081526020016000205490506000811415612989576001905080600960003373ffffffffffffffffffffffffffffffffffffffff1673ffffffffffffffffffffffffffffffffffffffff16815260200190815260200160002081905550600760405180604001604052803373ffffffffffffffffffffffffffffffffffffffff168152602001348152509080600181540180825580915050906001820390600052602060002090600202016000909192909190915060008201518160000160006101000a81548173ffffffffffffffffffffffffffffffffffffffff021916908373ffffffffffffffffffffffffffffffffffffffff160217905550602082015181600101555050506008600081548092919060010191905055506129d3565b60006007828154811061299857fe5b9060005260206000209060020201600101549050348101600783815481106129bc57fe5b906000526020600020906002020160010181905550505b3460046000828254019250508190555050565b828054600181600116156101000203166002900490600052602060002090601f016020900481019282601f10612a2757805160ff1916838001178555612a55565b82800160010185558215612a55579182015b82811115612a54578251825591602001919060010190612a39565b5b509050612a629190612a66565b5090565b612a8891905b80821115612a84576000816000905550600101612a6c565b5090565b9056fe43616d706169676e206861736e277420726561636865642069747320676f616c207965742e43616d706169676e20636f756c646e277420726561636865642069747320676f616c2e54686572652073686f756c6420626520657175616c206e6f2e206f6620726563697069656e74732061646472657373657320616e6420616d6f756e7473526571756573742068617320616c7265616479206265656e20636f6d706c657465642e52657175657374206d75737420636f6e7461696e2061746c65617374206f6e6520726563697069656e7443616d706169676e20646f6e2774206861766520656e6f7567682066756e647320666f7220796f757220726571756573742e4f6e6c79204d616e616765722063616e2063616c6c20746869732066756e6374696f6e4f6e6c7920446f6e6f722063616e2063616c6c20746869732066756e6374696f6e73596f75206861766520746f206265206120646f6e6f7220696e206f7264657220746f20776974686472617720796f757220646f6e6174696f6e546f74616c20616d6f756e742064656c65676174656420746f20726563697069656e7473206d75737420626520657175616c20746f2074686520746f74616c20616d6f756e7420696e20746865207265717565737443616d706169676e2063616e6e6f7420626520636c6f7365642c2062656361757365206974207374696c6c2068617320736f6d6520756e7370656e6465642066756e647346756e6420526571756573742063616e6e6f742062652070726f6365737365642c20656974686572207468652072657175697265642074696d65206973206e6f74207265616368656420796574206f72206d6f737420646f6e6f72732068617320646973617070726f7665642069742ea265627a7a72315820e7464e403abe2d6ed7052a28a4e59aa8354d5bb1c16a12a56c3b5e1a157ccf1b64736f6c63430005100032496e697469616c20616d6f756e7420676f616c20206d7573742062652067726561746572207468616e207a65726f43616d706169676e2073746172742074696d65206d757374206265206c657373207468616e20656e642074696d652e",
  "source": "pragma solidity ^0.5.16;\r\n\r\n//https://ethereum.stackexchange.com/questions/13167/are-there-well-solved-and-simple-storage-patterns-for-solidity\r\n\r\n//A campaign is a single project used to collect funds from donors and spend them for any number of tasks related to a project,\r\n//through fund request which is totally controlled by donors voting, if donors approve a request, it will be completed \r\n//and funds can be withdrawn otherwise funds are locked inside the contract.\r\ncontract Campaign{\r\n    \r\n    //Perosn model to hold a person's address & the delegated amount\r\n    struct Person{\r\n        address personAddress;\r\n        uint amount;\r\n    }\r\n    \r\n    //Fund request, required to take out  funds from this Campaign through requests for different tasks,\r\n    //it takes three days for a request to complete, and requires alteast 51% donors approval to proceed,\r\n    //otherwise won't complete, after completion of the request, donation can be transfered to the recipients,\r\n    //whom were registered when the request was created.\r\n    //The request, by default is considered to be approved by the donors, but if donors want to disapprove a request,\r\n    //they have three days to explicitly disapprove it. After that, request would be considered approved by any donor,\r\n    //who didn't disapproved it.\r\n    struct FundRequest{\r\n        \r\n        //Breif description about the task\r\n        string description;\r\n        \r\n        //The amount required for the task\r\n        uint amount;\r\n        \r\n        //List of recipients, who will recieve the donation\r\n        mapping(uint=>Person) recipients;\r\n        \r\n        //recipients count\r\n        uint recipientsCount;\r\n        \r\n        //list of people who disapproves this request(by default request is considered to be approved by all donors,\r\n        //that's why we just need the disapprovers lists & count)\r\n        mapping(address=>bool) disapprovers;\r\n        \r\n        //disapprovers count\r\n        uint disapproversCount;\r\n        \r\n        //represents a timestamp at which this request was created\r\n        uint createdAt;\r\n        \r\n        //Indicates if the request is completed\r\n        bool isCompleted;\r\n    }\r\n    \r\n    //=============================Public Properties=======================================//\r\n    \r\n    //Manager: Owner of the contract, can request funds for different tasks\r\n    address public manager;\r\n    \r\n    //Campaign title\r\n    string public title;\r\n    \r\n    //Breif description of the Campaign\r\n    string public description;\r\n    \r\n    //Minimum amount of donation this contract must recieve to process the donations\r\n    uint public amountInitialGoal;\r\n    \r\n     //the total amount of donations collected\r\n    uint public amountCollected;\r\n    \r\n    //the amount delegated to fund requests\r\n    uint public amountDelegated;\r\n    \r\n    //the total amount spended by this Campaign\r\n    uint public amountSpended;\r\n    \r\n    //NOTE: donorsList starts at index 1 NOT at zero because we are tracking donors addresses for faster exists checks,\r\n    //in another mapping(see below \"donors\") of address and index of that address in this array pointing to its amount.\r\n    //\r\n    //Donations made by donors\r\n    Person[] public donorsList;\r\n    \r\n    //actual count of donors(NOTE: donorslist lenght won't represent the actual count because donors can be removed from middle of the array and will have empty dononrs then)\r\n    uint public dononrsCount;\r\n    \r\n    //Donors address with and integer array pointing to donations array where donation amount is stored\r\n    mapping(address=>uint) public donors;\r\n    \r\n    //Fund request by manager for certain task, donors can disapprove this, if 51% donors disapprove the request it will be considered cancled\r\n    FundRequest[] fundRequests;\r\n    \r\n    //time required for a request to process if 51% of the donors approve it\r\n    uint public fundRequestProcessTime; \r\n    \r\n    //the timestamp at which the Campaign was created\r\n    uint public createdAt;\r\n    \r\n    //the timestamp the Campaign will be closed (after Campaign is closed donations will be locked in the contract)\r\n    uint public closedAt;\r\n    \r\n    //True till campaign is closed\r\n    bool public isActive;\r\n    \r\n     //=============================Modifiers=======================================//\r\n     \r\n    modifier onlyManager(){ require(manager == msg.sender,'Only Manager can call this function'); _; }\r\n    modifier onlyDonor(){ require( donors[msg.sender] > 0 ,'Only Donor can call this functions'); _; }\r\n    modifier ifActive(){ require( isActive == true , 'Contract is closed'); _; }\r\n    modifier hasReachedGoal(){ require( closedAt > now && amountCollected >=  amountInitialGoal , \"Campaign hasn't reached its goal yet.\"); _; }\r\n     \r\n    //=============================Constructor=======================================//\r\n\r\n    constructor(address _manager, string memory _title, string memory _description, uint _initialAmountGoal, uint _createdAt, uint _closedAt) public{\r\n        require(_closedAt > _createdAt, 'Campaign start time must be less than end time.');\r\n        require(_initialAmountGoal > uint(0) , 'Initial amount goal  must be greater than zero');\r\n        \r\n        manager = _manager;\r\n        title = _title;\r\n        description = _description;\r\n        amountInitialGoal = _initialAmountGoal;\r\n        createdAt = _createdAt;\r\n        closedAt = _closedAt;\r\n        fundRequestProcessTime = 259200;//equal to three days\r\n        isActive = true;\r\n        dononrsCount = 0;\r\n        donorsList.push(Person({personAddress: address(0x0), amount: 0}));\r\n    }\r\n\r\n    //=============================Public Methods=======================================//\r\n    \r\n    //To donate funds for this Campaign, users can donate as many times as they want\r\n    function donate() ifActive public payable {\r\n        require(msg.value != uint(0),'Amount must be greater than zero');\r\n        \r\n        uint index = donors[msg.sender];\r\n\r\n        //if donor hasn't donated any amount yet this would be true\r\n        if(index == 0){\r\n            index = 1;\r\n            \r\n            //add donor to mapping \r\n            donors[msg.sender] = index;\r\n\r\n            //add donor\r\n            donorsList.push(\r\n                Person({personAddress: msg.sender, amount: msg.value})\r\n                );\r\n            dononrsCount++;\r\n        }\r\n        //if donor has donated before just add the new donation amount to the previous one\r\n        else{\r\n            \r\n            uint prevAmount = donorsList[index].amount;\r\n            donorsList[index].amount = prevAmount + msg.value;\r\n        }\r\n        \r\n        //increase amount collected count\r\n        amountCollected += msg.value;\r\n    }\r\n    \r\n    //To withdraw the donations for certain time if user wants before Campaign is closed and Campaign donation goal is not achieved,\r\n    //after thqt users will be able to donate but they won't be able to withdraw their donations\r\n    function withdrawDonation() ifActive public returns(uint) {\r\n        //donation can only be withdrawn in two cases\r\n        //1. if donation goal couldn't be reached\r\n        //2. if donation hasn't closed yet\r\n        require(amountCollected < amountInitialGoal || closedAt > now,'Donation cannot be withdrawn');\r\n        \r\n        uint index = donors[msg.sender];\r\n        \r\n        //if donor doesn't exist return\r\n        require(index > 0, \"You have to be a donor in order to withdraw your donation\");\r\n        \r\n        uint amount = donorsList[index].amount;\r\n        if(amount > 0)\r\n        {\r\n            // delete donor from mapping;\r\n            donors[msg.sender] = 0;\r\n            \r\n            //delete donor from list\r\n            delete donorsList[index];\r\n            \r\n            //detect the amount collected\r\n            amountCollected -= amount;\r\n            \r\n            dononrsCount--;\r\n            \r\n            //transfer funds\r\n            msg.sender.transfer(amount);\r\n        }\r\n    }\r\n    \r\n    function createFundRequest(string memory _description, uint _amount, address[] memory _recipientsAddress, uint[] memory _recipientsAmount) hasReachedGoal ifActive onlyManager public{\r\n        require(closedAt > now && amountCollected >=  amountInitialGoal,\"Campaign couldn't reached its goal.\");\r\n        require(_amount > 0,'Amount cannot be zero.');\r\n        require(_recipientsAddress.length > 0 && _recipientsAmount.length > 0, 'Request must contain atleast one recipient');\r\n        require(_recipientsAddress.length == _recipientsAmount.length,'There should be equal no. of recipients addresses and amounts');\r\n        require(amountCollected - amountSpended - amountDelegated >= _amount, \"Campaign don't have enough funds for your request.\");\r\n        \r\n        uint totalAmount = 0;\r\n        for(uint i; i < _recipientsAmount.length; i++){\r\n            totalAmount += _recipientsAmount[i];   \r\n        }\r\n        \r\n        require(totalAmount == _amount, \"Total amount delegated to recipients must be equal to the total amount in the request\");\r\n        \r\n        fundRequests.push(\r\n            FundRequest({description: _description, amount: _amount, recipientsCount: 0, createdAt: now, disapproversCount: 0, isCompleted: false})\r\n        );\r\n        //get the added request\r\n        FundRequest storage request = fundRequests[fundRequests.length - 1];\r\n        \r\n        mapping(uint=>Person) storage recipients = request.recipients;\r\n        //add the recipients\r\n        for(uint i = 0; i < _recipientsAddress.length; i++){\r\n            recipients[i] = Person({personAddress: _recipientsAddress[i], amount: _recipientsAmount[i]});\r\n            request.recipientsCount++;\r\n        }\r\n        \r\n        amountDelegated += _amount;\r\n    }\r\n    \r\n    function disapproveFundRequest(uint index) hasReachedGoal ifActive onlyDonor public{\r\n        require(index < fundRequests.length, \"Fund Request don't exist.\");\r\n        require(fundRequests[index].isCompleted == false,'Request has already been completed.');\r\n        \r\n        if(!fundRequests[index].disapprovers[msg.sender]){\r\n            fundRequests[index].disapprovers[msg.sender] = true;\r\n            fundRequests[index].disapproversCount++;\r\n        }\r\n    }\r\n    \r\n    function approveFundRequest(uint index) ifActive onlyDonor public{\r\n        require(index < fundRequests.length, \"Fund Request don't exist.\");\r\n        require(fundRequests[index].isCompleted == false,'Request has already been completed.');\r\n        \r\n        mapping(address=>bool) storage disapprovers = fundRequests[index].disapprovers;\r\n        \r\n        //only approve if donor disapproved the request before\r\n        if(disapprovers[msg.sender]){\r\n            //make aprover again\r\n            disapprovers[msg.sender] = false;\r\n            //decrease the disapprovers count\r\n            fundRequests[index].disapproversCount--;\r\n        }\r\n    }\r\n    \r\n    function processFundRequest(uint index) ifActive onlyManager public{\r\n        FundRequest storage request = fundRequests[index];\r\n        require(\r\n            request.createdAt + fundRequestProcessTime < now && \r\n            request.disapproversCount < donorsList.length &&\r\n            !request.isCompleted  \r\n          , \"Fund Request cannot be processed, either the required time is not reached yet or most donors has disapproved it.\");\r\n          \r\n            request.isCompleted = true;\r\n            amountDelegated -= request.amount;\r\n            amountSpended += request.amount;\r\n            for(uint i = 0; i < request.recipientsCount; i++){\r\n                Person storage recipient = request.recipients[i];\r\n                //convert address to address payable (NOTE: this conversion differs around different versions of solidity)\r\n                address(uint160(recipient.personAddress)).transfer(recipient.amount);\r\n            }\r\n        \r\n    }\r\n    \r\n    function getFundRequest(uint index) public view returns(string memory,uint, uint, uint, uint, bool, bool, address[]memory, uint[]memory){\r\n        require(fundRequests.length + 1 > index,\"Index is out of range.\");\r\n        \r\n        //get the recipients\r\n        FundRequest storage req = fundRequests[index];\r\n        address[] memory addresses = new address[](req.recipientsCount);\r\n        uint[] memory amounts = new uint[](req.recipientsCount);\r\n        \r\n        for(uint i = 0; i < req.recipientsCount; i++){\r\n            addresses[i] = req.recipients[i].personAddress;\r\n            amounts[i] = req.recipients[i].amount;\r\n        }\r\n        \r\n        return(\r\n            req.description,\r\n            req.amount,\r\n            req.recipientsCount,\r\n            req.disapproversCount,\r\n            req.createdAt,\r\n            req.isCompleted,\r\n            req.disapprovers[msg.sender],\r\n            addresses,\r\n            amounts\r\n            );\r\n    }\r\n\r\n    function getSummary()public view returns(\r\n        address, string memory, string memory, uint, uint, uint, uint, uint, uint, uint, uint,uint, bool\r\n        ){\r\n        return (\r\n            manager,\r\n            title,\r\n            description,\r\n            amountInitialGoal,\r\n            amountCollected,\r\n            amountDelegated,\r\n            amountSpended,\r\n            fundRequestProcessTime,\r\n            createdAt,\r\n            closedAt,\r\n            dononrsCount,\r\n            fundRequests.length,\r\n            isActive\r\n            );\r\n    }\r\n    \r\n    function setFundRequestProcessTime(uint processTime) ifActive  onlyManager  public {\r\n        fundRequestProcessTime = processTime;\r\n    }\r\n \r\n    \r\n    function deactivate() onlyManager public {\r\n        require(amountCollected == amountSpended,\"Campaign cannot be closed, because it still has some unspended funds\");\r\n        isActive = false;\r\n    }\r\n    \r\n}",
  "sourcePath": "F:\\Software Development\\React Projects\\de-care\\ethereum\\contracts\\Campaign.sol",
  "compiler": {
    "name": "solc",
    "version": "0.5.16+commit.9c3226ce.Emscripten.clang"
  },
  "schemaVersion": "3.2.2",
  "updatedAt": "2020-08-11T18:47:40.815Z",
  "devdoc": {
    "methods": {}
  },
  "userdoc": {
    "methods": {}
  }
}