{
  "contractName": "Campaign",
  "abi": [
    {
      "inputs": [
        {
          "internalType": "address",
          "name": "_manager",
          "type": "address"
        },
        {
          "internalType": "string",
          "name": "_title",
          "type": "string"
        },
        {
          "internalType": "string",
          "name": "_description",
          "type": "string"
        },
        {
          "internalType": "uint256",
          "name": "_initialAmountGoal",
          "type": "uint256"
        },
        {
          "internalType": "uint256",
          "name": "_createdAt",
          "type": "uint256"
        },
        {
          "internalType": "uint256",
          "name": "_closedAt",
          "type": "uint256"
        }
      ],
      "payable": false,
      "stateMutability": "nonpayable",
      "type": "constructor"
    },
    {
      "constant": true,
      "inputs": [],
      "name": "amountCollected",
      "outputs": [
        {
          "internalType": "uint256",
          "name": "",
          "type": "uint256"
        }
      ],
      "payable": false,
      "stateMutability": "view",
      "type": "function"
    },
    {
      "constant": true,
      "inputs": [],
      "name": "amountDelegated",
      "outputs": [
        {
          "internalType": "uint256",
          "name": "",
          "type": "uint256"
        }
      ],
      "payable": false,
      "stateMutability": "view",
      "type": "function"
    },
    {
      "constant": true,
      "inputs": [],
      "name": "amountInitialGoal",
      "outputs": [
        {
          "internalType": "uint256",
          "name": "",
          "type": "uint256"
        }
      ],
      "payable": false,
      "stateMutability": "view",
      "type": "function"
    },
    {
      "constant": true,
      "inputs": [],
      "name": "amountSpended",
      "outputs": [
        {
          "internalType": "uint256",
          "name": "",
          "type": "uint256"
        }
      ],
      "payable": false,
      "stateMutability": "view",
      "type": "function"
    },
    {
      "constant": true,
      "inputs": [],
      "name": "closedAt",
      "outputs": [
        {
          "internalType": "uint256",
          "name": "",
          "type": "uint256"
        }
      ],
      "payable": false,
      "stateMutability": "view",
      "type": "function"
    },
    {
      "constant": true,
      "inputs": [],
      "name": "createdAt",
      "outputs": [
        {
          "internalType": "uint256",
          "name": "",
          "type": "uint256"
        }
      ],
      "payable": false,
      "stateMutability": "view",
      "type": "function"
    },
    {
      "constant": true,
      "inputs": [],
      "name": "description",
      "outputs": [
        {
          "internalType": "string",
          "name": "",
          "type": "string"
        }
      ],
      "payable": false,
      "stateMutability": "view",
      "type": "function"
    },
    {
      "constant": true,
      "inputs": [
        {
          "internalType": "address",
          "name": "",
          "type": "address"
        }
      ],
      "name": "donors",
      "outputs": [
        {
          "internalType": "uint256",
          "name": "",
          "type": "uint256"
        }
      ],
      "payable": false,
      "stateMutability": "view",
      "type": "function"
    },
    {
      "constant": true,
      "inputs": [
        {
          "internalType": "uint256",
          "name": "",
          "type": "uint256"
        }
      ],
      "name": "donorsList",
      "outputs": [
        {
          "internalType": "address",
          "name": "personAddress",
          "type": "address"
        },
        {
          "internalType": "uint256",
          "name": "amount",
          "type": "uint256"
        }
      ],
      "payable": false,
      "stateMutability": "view",
      "type": "function"
    },
    {
      "constant": true,
      "inputs": [],
      "name": "fundRequestProcessTime",
      "outputs": [
        {
          "internalType": "uint256",
          "name": "",
          "type": "uint256"
        }
      ],
      "payable": false,
      "stateMutability": "view",
      "type": "function"
    },
    {
      "constant": true,
      "inputs": [
        {
          "internalType": "uint256",
          "name": "",
          "type": "uint256"
        }
      ],
      "name": "fundRequests",
      "outputs": [
        {
          "internalType": "string",
          "name": "description",
          "type": "string"
        },
        {
          "internalType": "uint256",
          "name": "amount",
          "type": "uint256"
        },
        {
          "internalType": "uint256",
          "name": "recipientsCount",
          "type": "uint256"
        },
        {
          "internalType": "uint256",
          "name": "disapproversCount",
          "type": "uint256"
        },
        {
          "internalType": "uint256",
          "name": "createdAt",
          "type": "uint256"
        },
        {
          "internalType": "bool",
          "name": "isCompleted",
          "type": "bool"
        }
      ],
      "payable": false,
      "stateMutability": "view",
      "type": "function"
    },
    {
      "constant": true,
      "inputs": [],
      "name": "manager",
      "outputs": [
        {
          "internalType": "address",
          "name": "",
          "type": "address"
        }
      ],
      "payable": false,
      "stateMutability": "view",
      "type": "function"
    },
    {
      "constant": true,
      "inputs": [],
      "name": "title",
      "outputs": [
        {
          "internalType": "string",
          "name": "",
          "type": "string"
        }
      ],
      "payable": false,
      "stateMutability": "view",
      "type": "function"
    },
    {
      "constant": false,
      "inputs": [],
      "name": "donate",
      "outputs": [],
      "payable": true,
      "stateMutability": "payable",
      "type": "function"
    },
    {
      "constant": false,
      "inputs": [],
      "name": "withdrawDonation",
      "outputs": [
        {
          "internalType": "uint256",
          "name": "",
          "type": "uint256"
        }
      ],
      "payable": false,
      "stateMutability": "nonpayable",
      "type": "function"
    },
    {
      "constant": false,
      "inputs": [
        {
          "internalType": "string",
          "name": "_description",
          "type": "string"
        },
        {
          "internalType": "uint256",
          "name": "_amount",
          "type": "uint256"
        },
        {
          "internalType": "address[]",
          "name": "_recipientsAddress",
          "type": "address[]"
        },
        {
          "internalType": "uint256[]",
          "name": "_recipientsAmount",
          "type": "uint256[]"
        }
      ],
      "name": "createFundRequest",
      "outputs": [],
      "payable": false,
      "stateMutability": "nonpayable",
      "type": "function"
    },
    {
      "constant": false,
      "inputs": [
        {
          "internalType": "uint256",
          "name": "index",
          "type": "uint256"
        }
      ],
      "name": "disapproveFundRequest",
      "outputs": [],
      "payable": false,
      "stateMutability": "nonpayable",
      "type": "function"
    },
    {
      "constant": false,
      "inputs": [
        {
          "internalType": "uint256",
          "name": "index",
          "type": "uint256"
        }
      ],
      "name": "approveFundRequest",
      "outputs": [],
      "payable": false,
      "stateMutability": "nonpayable",
      "type": "function"
    },
    {
      "constant": false,
      "inputs": [
        {
          "internalType": "uint256",
          "name": "index",
          "type": "uint256"
        }
      ],
      "name": "processFundRequest",
      "outputs": [],
      "payable": false,
      "stateMutability": "nonpayable",
      "type": "function"
    },
    {
      "constant": true,
      "inputs": [],
      "name": "getSummary",
      "outputs": [
        {
          "internalType": "address",
          "name": "",
          "type": "address"
        },
        {
          "internalType": "string",
          "name": "",
          "type": "string"
        },
        {
          "internalType": "string",
          "name": "",
          "type": "string"
        },
        {
          "internalType": "uint256",
          "name": "",
          "type": "uint256"
        },
        {
          "internalType": "uint256",
          "name": "",
          "type": "uint256"
        },
        {
          "internalType": "uint256",
          "name": "",
          "type": "uint256"
        },
        {
          "internalType": "uint256",
          "name": "",
          "type": "uint256"
        },
        {
          "internalType": "uint256",
          "name": "",
          "type": "uint256"
        },
        {
          "internalType": "uint256",
          "name": "",
          "type": "uint256"
        },
        {
          "internalType": "uint256",
          "name": "",
          "type": "uint256"
        },
        {
          "internalType": "uint256",
          "name": "",
          "type": "uint256"
        },
        {
          "internalType": "uint256",
          "name": "",
          "type": "uint256"
        }
      ],
      "payable": false,
      "stateMutability": "view",
      "type": "function"
    }
  ],
  "bytecode": "0x60806040523480156200001157600080fd5b506040516200247f3803806200247f833981810160405260c08110156200003757600080fd5b8101908080519060200190929190805160405193929190846401000000008211156200006257600080fd5b838201915060208201858111156200007957600080fd5b82518660018202830111640100000000821117156200009757600080fd5b8083526020830192505050908051906020019080838360005b83811015620000cd578082015181840152602081019050620000b0565b50505050905090810190601f168015620000fb5780820380516001836020036101000a031916815260200191505b50604052602001805160405193929190846401000000008211156200011f57600080fd5b838201915060208201858111156200013657600080fd5b82518660018202830111640100000000821117156200015457600080fd5b8083526020830192505050908051906020019080838360005b838110156200018a5780820151818401526020810190506200016d565b50505050905090810190601f168015620001b85780820380516001836020036101000a031916815260200191505b506040526020018051906020019092919080519060200190929190805190602001909291905050508181116200023a576040517f08c379a000000000000000000000000000000000000000000000000000000000815260040180806020018281038252602f81526020018062002450602f913960400191505060405180910390fd5b6000831162000295576040517f08c379a000000000000000000000000000000000000000000000000000000000815260040180806020018281038252602e81526020018062002422602e913960400191505060405180910390fd5b856000806101000a81548173ffffffffffffffffffffffffffffffffffffffff021916908373ffffffffffffffffffffffffffffffffffffffff1602179055508460019080519060200190620002ed929190620003e0565b50836002908051906020019062000306929190620003e0565b508260038190555081600b8190555080600c819055506203f480600a8190555060076040518060400160405280600073ffffffffffffffffffffffffffffffffffffffff16815260200160008152509080600181540180825580915050906001820390600052602060002090600202016000909192909190915060008201518160000160006101000a81548173ffffffffffffffffffffffffffffffffffffffff021916908373ffffffffffffffffffffffffffffffffffffffff160217905550602082015181600101555050505050505050506200048f565b828054600181600116156101000203166002900490600052602060002090601f016020900481019282601f106200042357805160ff191683800117855562000454565b8280016001018555821562000454579182015b828111156200045357825182559160200191906001019062000436565b5b50905062000463919062000467565b5090565b6200048c91905b80821115620004885760008160009055506001016200046e565b5090565b90565b611f83806200049f6000396000f3fe60806040526004361061011f5760003560e01c80637284e416116100a0578063ca0cdea811610064578063ca0cdea8146108d8578063cf09e0d01461093d578063d2765c9414610968578063e81e1ccc146109a3578063ed88c68e146109ce5761011f565b80637284e41614610695578063777016fb1461072557806380ee37fa146107505780639ef27b001461082b578063a9627136146108565761011f565b8063481c6a75116100e7578063481c6a751461052d5780634a79d50c146105845780635c8d715214610614578063607136091461063f5780636a3d9a4a1461066a5761011f565b80631b0f5fc21461012457806321464bfe1461015f578063332f7acf1461019a578063372bfd9c146101c55780634051ddac146103bf575b600080fd5b34801561013057600080fd5b5061015d6004803603602081101561014757600080fd5b81019080803590602001909291905050506109d8565b005b34801561016b57600080fd5b506101986004803603602081101561018257600080fd5b8101908080359060200190929190505050610b82565b005b3480156101a657600080fd5b506101af610d9f565b6040518082815260200191505060405180910390f35b3480156101d157600080fd5b506103bd600480360360808110156101e857600080fd5b810190808035906020019064010000000081111561020557600080fd5b82018360208201111561021757600080fd5b8035906020019184600183028401116401000000008311171561023957600080fd5b91908080601f016020809104026020016040519081016040528093929190818152602001838380828437600081840152601f19601f82011690508083019250505050505050919291929080359060200190929190803590602001906401000000008111156102a657600080fd5b8201836020820111156102b857600080fd5b803590602001918460208302840111640100000000831117156102da57600080fd5b919080806020026020016040519081016040528093929190818152602001838360200280828437600081840152601f19601f8201169050808301925050505050505091929192908035906020019064010000000081111561033a57600080fd5b82018360208201111561034c57600080fd5b8035906020019184602083028401116401000000008311171561036e57600080fd5b919080806020026020016040519081016040528093929190818152602001838360200280828437600081840152601f19601f820116905080830192505050505050509192919290505050610da5565b005b3480156103cb57600080fd5b506103d461127f565b604051808d73ffffffffffffffffffffffffffffffffffffffff1673ffffffffffffffffffffffffffffffffffffffff16815260200180602001806020018c81526020018b81526020018a815260200189815260200188815260200187815260200186815260200185815260200184815260200183810383528e818151815260200191508051906020019080838360005b83811015610480578082015181840152602081019050610465565b50505050905090810190601f1680156104ad5780820380516001836020036101000a031916815260200191505b5083810382528d818151815260200191508051906020019080838360005b838110156104e65780820151818401526020810190506104cb565b50505050905090810190601f1680156105135780820380516001836020036101000a031916815260200191505b509e50505050505050505050505050505060405180910390f35b34801561053957600080fd5b50610542611437565b604051808273ffffffffffffffffffffffffffffffffffffffff1673ffffffffffffffffffffffffffffffffffffffff16815260200191505060405180910390f35b34801561059057600080fd5b5061059961145c565b6040518080602001828103825283818151815260200191508051906020019080838360005b838110156105d95780820151818401526020810190506105be565b50505050905090810190601f1680156106065780820380516001836020036101000a031916815260200191505b509250505060405180910390f35b34801561062057600080fd5b506106296114fa565b6040518082815260200191505060405180910390f35b34801561064b57600080fd5b50610654611500565b6040518082815260200191505060405180910390f35b34801561067657600080fd5b5061067f611506565b6040518082815260200191505060405180910390f35b3480156106a157600080fd5b506106aa61150c565b6040518080602001828103825283818151815260200191508051906020019080838360005b838110156106ea5780820151818401526020810190506106cf565b50505050905090810190601f1680156107175780820380516001836020036101000a031916815260200191505b509250505060405180910390f35b34801561073157600080fd5b5061073a6115aa565b6040518082815260200191505060405180910390f35b34801561075c57600080fd5b506107896004803603602081101561077357600080fd5b81019080803590602001909291905050506115b0565b604051808060200187815260200186815260200185815260200184815260200183151515158152602001828103825288818151815260200191508051906020019080838360005b838110156107eb5780820151818401526020810190506107d0565b50505050905090810190601f1680156108185780820380516001836020036101000a031916815260200191505b5097505050505050505060405180910390f35b34801561083757600080fd5b5061084061169e565b6040518082815260200191505060405180910390f35b34801561086257600080fd5b5061088f6004803603602081101561087957600080fd5b81019080803590602001909291905050506116a4565b604051808373ffffffffffffffffffffffffffffffffffffffff1673ffffffffffffffffffffffffffffffffffffffff1681526020018281526020019250505060405180910390f35b3480156108e457600080fd5b50610927600480360360208110156108fb57600080fd5b81019080803573ffffffffffffffffffffffffffffffffffffffff1690602001909291905050506116f5565b6040518082815260200191505060405180910390f35b34801561094957600080fd5b5061095261170d565b6040518082815260200191505060405180910390f35b34801561097457600080fd5b506109a16004803603602081101561098b57600080fd5b8101908080359060200190929190505050611713565b005b3480156109af57600080fd5b506109b86118d7565b6040518082815260200191505060405180910390f35b6109d6611b24565b005b3373ffffffffffffffffffffffffffffffffffffffff166000809054906101000a900473ffffffffffffffffffffffffffffffffffffffff1673ffffffffffffffffffffffffffffffffffffffff1614610a3157600080fd5b600060098281548110610a4057fe5b9060005260206000209060080201905042600a54826006015401118015610a6f57506007805490508160050154105b8015610a8a57508060070160009054906101000a900460ff16155b15610b7e5760018160070160006101000a81548160ff0219169083151502179055508060010154600560008282540392505081905550806001015460066000828254019250508190555060008090505b8160030154811015610b7c57600082600201600083815260200190815260200160002090508060000160009054906101000a900473ffffffffffffffffffffffffffffffffffffffff1673ffffffffffffffffffffffffffffffffffffffff166108fc82600101549081150290604051600060405180830381858888f19350505050158015610b6d573d6000803e3d6000fd5b50508080600101915050610ada565b505b5050565b6000600860003373ffffffffffffffffffffffffffffffffffffffff1673ffffffffffffffffffffffffffffffffffffffff1681526020019081526020016000205411610bce57600080fd5b60008111610c27576040517f08c379a0000000000000000000000000000000000000000000000000000000008152600401808060200182810382526021815260200180611ed96021913960400191505060405180910390fd5b6009805490508110610ca1576040517f08c379a00000000000000000000000000000000000000000000000000000000081526004018080602001828103825260198152602001807f46756e64205265717565737420646f6e27742065786973742e0000000000000081525060200191505060405180910390fd5b600060098281548110610cb057fe5b906000526020600020906008020160040190508060003373ffffffffffffffffffffffffffffffffffffffff1673ffffffffffffffffffffffffffffffffffffffff16815260200190815260200160002060009054906101000a900460ff1615610d9b5760008160003373ffffffffffffffffffffffffffffffffffffffff1673ffffffffffffffffffffffffffffffffffffffff16815260200190815260200160002060006101000a81548160ff02191690831515021790555060098281548110610d7857fe5b906000526020600020906008020160050160008154809291906001900391905055505b5050565b60045481565b3373ffffffffffffffffffffffffffffffffffffffff166000809054906101000a900473ffffffffffffffffffffffffffffffffffffffff1673ffffffffffffffffffffffffffffffffffffffff1614610dfe57600080fd5b42600c54118015610e13575060035460045410155b610e68576040517f08c379a0000000000000000000000000000000000000000000000000000000008152600401808060200182810382526023815260200180611de46023913960400191505060405180910390fd5b60008311610ede576040517f08c379a00000000000000000000000000000000000000000000000000000000081526004018080602001828103825260168152602001807f416d6f756e742063616e6e6f74206265207a65726f2e0000000000000000000081525060200191505060405180910390fd5b60008251118015610ef0575060008151115b610f45576040517f08c379a000000000000000000000000000000000000000000000000000000000815260040180806020018281038252602a815260200180611e44602a913960400191505060405180910390fd5b8051825114610f9f576040517f08c379a000000000000000000000000000000000000000000000000000000000815260040180806020018281038252603d815260200180611e07603d913960400191505060405180910390fd5b8260055460065460045403031015611002576040517f08c379a0000000000000000000000000000000000000000000000000000000008152600401808060200182810382526032815260200180611e6e6032913960400191505060405180910390fd5b600080905060005b82518110156110385782818151811061101f57fe5b602002602001015182019150808060010191505061100a565b50838114611091576040517f08c379a0000000000000000000000000000000000000000000000000000000008152600401808060200182810382526055815260200180611efa6055913960600191505060405180910390fd5b60096040518060c0016040528087815260200186815260200160008152602001600081526020014281526020016000151581525090806001815401808255809150509060018203906000526020600020906008020160009091929091909150600082015181600001908051906020019061110c929190611d3e565b506020820151816001015560408201518160030155606082015181600501556080820151816006015560a08201518160070160006101000a81548160ff021916908315150217905550505050600060096001600980549050038154811061116f57fe5b90600052602060002090600802019050600081600201905060008090505b855181101561126e5760405180604001604052808783815181106111ad57fe5b602002602001015173ffffffffffffffffffffffffffffffffffffffff1681526020018683815181106111dc57fe5b602002602001015181525082600083815260200190815260200160002060008201518160000160006101000a81548173ffffffffffffffffffffffffffffffffffffffff021916908373ffffffffffffffffffffffffffffffffffffffff160217905550602082015181600101559050508260030160008154809291906001019190505550808060010191505061118d565b508560058190555050505050505050565b600060608060008060008060008060008060008060009054906101000a900473ffffffffffffffffffffffffffffffffffffffff1660016002600354600454600554600654600a54600b54600c546007805490506009805490508a8054600181600116156101000203166002900480601f01602080910402602001604051908101604052809291908181526020018280546001816001161561010002031660029004801561136e5780601f106113435761010080835404028352916020019161136e565b820191906000526020600020905b81548152906001019060200180831161135157829003601f168201915b50505050509a50898054600181600116156101000203166002900480601f01602080910402602001604051908101604052809291908181526020018280546001816001161561010002031660029004801561140a5780601f106113df5761010080835404028352916020019161140a565b820191906000526020600020905b8154815290600101906020018083116113ed57829003601f168201915b505050505099509b509b509b509b509b509b509b509b509b509b509b509b50909192939495969798999a9b565b6000809054906101000a900473ffffffffffffffffffffffffffffffffffffffff1681565b60018054600181600116156101000203166002900480601f0160208091040260200160405190810160405280929190818152602001828054600181600116156101000203166002900480156114f25780601f106114c7576101008083540402835291602001916114f2565b820191906000526020600020905b8154815290600101906020018083116114d557829003601f168201915b505050505081565b60065481565b60055481565b60035481565b60028054600181600116156101000203166002900480601f0160208091040260200160405190810160405280929190818152602001828054600181600116156101000203166002900480156115a25780601f10611577576101008083540402835291602001916115a2565b820191906000526020600020905b81548152906001019060200180831161158557829003601f168201915b505050505081565b600a5481565b600981815481106115bd57fe5b9060005260206000209060080201600091509050806000018054600181600116156101000203166002900480601f0160208091040260200160405190810160405280929190818152602001828054600181600116156101000203166002900480156116695780601f1061163e57610100808354040283529160200191611669565b820191906000526020600020905b81548152906001019060200180831161164c57829003601f168201915b5050505050908060010154908060030154908060050154908060060154908060070160009054906101000a900460ff16905086565b600c5481565b600781815481106116b157fe5b90600052602060002090600202016000915090508060000160009054906101000a900473ffffffffffffffffffffffffffffffffffffffff16908060010154905082565b60086020528060005260406000206000915090505481565b600b5481565b6000600860003373ffffffffffffffffffffffffffffffffffffffff1673ffffffffffffffffffffffffffffffffffffffff168152602001908152602001600020541161175f57600080fd5b600081116117b8576040517f08c379a0000000000000000000000000000000000000000000000000000000008152600401808060200182810382526021815260200180611ed96021913960400191505060405180910390fd5b6009805490508110611832576040517f08c379a00000000000000000000000000000000000000000000000000000000081526004018080602001828103825260198152602001807f46756e64205265717565737420646f6e27742065786973742e0000000000000081525060200191505060405180910390fd5b60016009828154811061184157fe5b906000526020600020906008020160040160003373ffffffffffffffffffffffffffffffffffffffff1673ffffffffffffffffffffffffffffffffffffffff16815260200190815260200160002060006101000a81548160ff021916908315150217905550600981815481106118b357fe5b90600052602060002090600802016005016000815480929190600101919050555050565b600060035460045410806118ec575042600c54115b61195e576040517f08c379a000000000000000000000000000000000000000000000000000000000815260040180806020018281038252601c8152602001807f446f6e6174696f6e2063616e6e6f742062652077697468647261776e0000000081525060200191505060405180910390fd5b6000600860003373ffffffffffffffffffffffffffffffffffffffff1673ffffffffffffffffffffffffffffffffffffffff168152602001908152602001600020549050600081116119fb576040517f08c379a0000000000000000000000000000000000000000000000000000000008152600401808060200182810382526039815260200180611ea06039913960400191505060405180910390fd5b600060078281548110611a0a57fe5b90600052602060002090600202016001015490506000811115611b1a576000600860003373ffffffffffffffffffffffffffffffffffffffff1673ffffffffffffffffffffffffffffffffffffffff1681526020019081526020016000208190555060078281548110611a7957fe5b9060005260206000209060020201600080820160006101000a81549073ffffffffffffffffffffffffffffffffffffffff021916905560018201600090555050806004600082825403925050819055503373ffffffffffffffffffffffffffffffffffffffff166108fc829081150290604051600060405180830381858888f19350505050158015611b0f573d6000803e3d6000fd5b508092505050611b21565b6000925050505b90565b6000341415611b9b576040517f08c379a00000000000000000000000000000000000000000000000000000000081526004018080602001828103825260208152602001807f416d6f756e74206d7573742062652067726561746572207468616e207a65726f81525060200191505060405180910390fd5b6000600860003373ffffffffffffffffffffffffffffffffffffffff1673ffffffffffffffffffffffffffffffffffffffff1681526020019081526020016000205490506000811415611ce1576001905080600860003373ffffffffffffffffffffffffffffffffffffffff1673ffffffffffffffffffffffffffffffffffffffff16815260200190815260200160002081905550600760405180604001604052803373ffffffffffffffffffffffffffffffffffffffff168152602001348152509080600181540180825580915050906001820390600052602060002090600202016000909192909190915060008201518160000160006101000a81548173ffffffffffffffffffffffffffffffffffffffff021916908373ffffffffffffffffffffffffffffffffffffffff16021790555060208201518160010155505050611d2b565b600060078281548110611cf057fe5b906000526020600020906002020160010154905034810160078381548110611d1457fe5b906000526020600020906002020160010181905550505b3460046000828254019250508190555050565b828054600181600116156101000203166002900490600052602060002090601f016020900481019282601f10611d7f57805160ff1916838001178555611dad565b82800160010185558215611dad579182015b82811115611dac578251825591602001919060010190611d91565b5b509050611dba9190611dbe565b5090565b611de091905b80821115611ddc576000816000905550600101611dc4565b5090565b9056fe43616d706169676e20636f756c646e277420726561636865642069747320676f616c2e54686572652073686f756c6420626520657175616c206e6f2e206f6620726563697069656e74732061646472657373657320616e6420616d6f756e747352657175657374206d75737420636f6e7461696e2061746c65617374206f6e6520726563697069656e7443616d706169676e20646f6e2774206861766520656e6f7567682066756e647320666f7220796f757220726571756573742e596f75206861766520746f206265206120646f6e6f7220696e206f7264657220746f20776974686472617720796f757220646f6e6174696f6e496e6465782073686f756c642062652067726561746572207468616e207a65726f546f74616c20616d6f756e742064656c65676174656420746f20726563697069656e7473206d75737420626520657175616c20746f2074686520746f74616c20616d6f756e7420696e207468652072657175657374a265627a7a723158208d73130919d0afe5d7bb97e5334808d26f56a8c61f3d735a623bb6ab04b1924964736f6c63430005100032496e697469616c20616d6f756e7420676f616c20206d7573742062652067726561746572207468616e207a65726f43616d706169676e2073746172742074696d65206d757374206265206c657373207468616e20656e642074696d652e",
  "source": "pragma solidity ^0.5.16;\r\n\r\n//https://ethereum.stackexchange.com/questions/13167/are-there-well-solved-and-simple-storage-patterns-for-solidity\r\n\r\n//A campaign is a single project used to collect funds from donors and spend them for any number of tasks related to a project,\r\n//through fund request which is totally controlled by donors voting, if donons approve a request request will be completed \r\n//and fund can be withdrawn otherwise funds are locked inside the contract.\r\ncontract Campaign{\r\n    \r\n    //Perosn model to hold a person's address & the delegated amount\r\n    struct Person{\r\n        address personAddress;\r\n        uint amount;\r\n    }\r\n    \r\n    //Fund request, required to take out  funds from this Campaign through requests for different tasks,\r\n    //it takes three days for a request to complete, and requires alteast 51% donors approval to proceed,\r\n    //otherwise won't complete, after completion of the request, donation can be transfered to the recipients,\r\n    //whom were registered when the request was created.\r\n    //The request, by default is considered to be approved by the donors, but if donors want to disapprove a request,\r\n    //they have three days to explicitly disapprove it. After that, request would be considered approved by any donor,\r\n    //who didn't disapproved it.\r\n    struct FundRequest{\r\n        \r\n        //Breif description about the task\r\n        string description;\r\n        \r\n        //The amount required for the task\r\n        uint amount;\r\n        \r\n        //List of recipients, who will recieve the donation\r\n        mapping(uint=>Person) recipients;\r\n        \r\n        //recipients count\r\n        uint recipientsCount;\r\n        \r\n        //list of people who disapproves this request(by default request is considered to be approved by all donors,\r\n        //that's why we just need the disapprovers lists & count)\r\n        mapping(address=>bool) disapprovers;\r\n        \r\n        //disapprovers count\r\n        uint disapproversCount;\r\n        \r\n        //represents a timestamp at which this request was created\r\n        uint createdAt;\r\n        \r\n        //Indicates if the request is completed\r\n        bool isCompleted;\r\n    }\r\n    \r\n    //=============================Public Properties=======================================//\r\n    \r\n    //Manager: Owner of the contract, can request funds for different tasks\r\n    address public manager;\r\n    \r\n    //Campaign title\r\n    string public title;\r\n    \r\n    //Breif description of the Campaign\r\n    string public description;\r\n    \r\n    //Minimum amount of donation this contract must recieve to process the donations\r\n    uint public amountInitialGoal;\r\n    \r\n     //the total amount of donations collected\r\n    uint public amountCollected;\r\n    \r\n    //the amount delegated to fund requests\r\n    uint public amountDelegated;\r\n    \r\n    //the total amount spended by this Campaign\r\n    uint public amountSpended;\r\n    \r\n    //NOTE: donorsList starts at index 1 NOT at zero because we are tracking donors addresses for faster exists checks,\r\n    //in another mapping(see below \"donors\") of address and index of that address in this array pointing to its amount\r\n    //Donations made by donors\r\n    Person[] public donorsList;\r\n    \r\n    //Donors address with and integer array pointing to donations array where donation amount is stored\r\n    mapping(address=>uint) public donors;\r\n    \r\n    //Fund request by manager for certain task, donors can disapprove this, if 51% donors disapprove the request it will be considered cancled\r\n    FundRequest[] public fundRequests;\r\n    \r\n    //time required for a request to process if 51% of the donors approve it\r\n    uint public fundRequestProcessTime; \r\n    \r\n    //the timestamp at which the Campaign was created\r\n    uint public createdAt;\r\n    //[[\"0x4ece39D8D4a403C6825662A9665C3d266d1792D5\",4]]\r\n    //the timestamp the Campaign will be closed (after Campaign is closed donations will be locked in the contract)\r\n    uint public closedAt;\r\n    \r\n     //=============================Modifiers=======================================//\r\n     \r\n    modifier onlyManager(){ require(manager == msg.sender); _; }\r\n    modifier onlyDonor(){ require( donors[msg.sender] > 0 ); _; }\r\n    \r\n    //=============================Constructor=======================================//\r\n\r\n    constructor(address _manager, string memory _title, string memory _description, uint _initialAmountGoal, uint _createdAt, uint _closedAt) public{\r\n        require(_closedAt > _createdAt, 'Campaign start time must be less than end time.');\r\n        require(_initialAmountGoal > uint(0) , 'Initial amount goal  must be greater than zero');\r\n        \r\n        manager = _manager;\r\n        title = _title;\r\n        description = _description;\r\n        amountInitialGoal = _initialAmountGoal;\r\n        createdAt = _createdAt;\r\n        closedAt = _closedAt;\r\n        fundRequestProcessTime = 259200;        \r\n        \r\n        donorsList.push(Person({personAddress: address(0x0), amount: 0}));\r\n    }\r\n\r\n    //=============================Public Methods=======================================//\r\n    \r\n    //To donate funds for this Campaign, users can donate as many times as they want\r\n    function donate() public payable {\r\n        require(msg.value != uint(0),'Amount must be greater than zero');\r\n        \r\n        uint index = donors[msg.sender];\r\n\r\n        //if donor hasn't donated any amount yet this would be true\r\n        if(index == 0){\r\n            index = 1;\r\n            \r\n            //add donor to mapping \r\n            donors[msg.sender] = index;\r\n\r\n            //add donor\r\n            donorsList.push(\r\n                Person({personAddress: msg.sender, amount: msg.value})\r\n                );\r\n        }\r\n        //if donor has donated before just add the new donation amount to the previous one\r\n        else{\r\n            \r\n            uint prevAmount = donorsList[index].amount;\r\n            donorsList[index].amount = prevAmount + msg.value;\r\n        }\r\n        \r\n        //increase amount collected count\r\n        amountCollected += msg.value;\r\n    }\r\n    \r\n    //To withdraw the donations for certain time if user wants before Campaign is closed and Campaign donation goal is not achieved,\r\n    //after thqt users will be able to donate but they won't be able to withdraw their donations\r\n    function withdrawDonation() public returns(uint) {\r\n        //donation can only be withdrawn in two cases\r\n        //1. if donation goal couldn't be reached\r\n        //2. if donation hasn't closed yet\r\n        require(amountCollected < amountInitialGoal || closedAt > now,'Donation cannot be withdrawn');\r\n        \r\n        uint index = donors[msg.sender];\r\n        \r\n        //if donor doesn't exist return\r\n        require(index > 0, \"You have to be a donor in order to withdraw your donation\");\r\n        \r\n        uint amount = donorsList[index].amount;\r\n        if(amount > 0)\r\n        {\r\n            // delete donor from mapping;\r\n            donors[msg.sender] = 0;\r\n            \r\n            //delete donor from list\r\n            delete donorsList[index];\r\n            \r\n            //detect the amount collected\r\n            amountCollected -= amount;\r\n            \r\n            //transfer funds\r\n            msg.sender.transfer(amount);\r\n            return amount;\r\n        }\r\n        return uint(0);\r\n    }\r\n    \r\n    function createFundRequest(string memory _description, uint _amount, address[] memory _recipientsAddress, uint[] memory _recipientsAmount) onlyManager public{\r\n        require(closedAt > now && amountCollected >=  amountInitialGoal,\"Campaign couldn't reached its goal.\");\r\n        require(_amount > 0,'Amount cannot be zero.');\r\n        require(_recipientsAddress.length > 0 && _recipientsAmount.length > 0, 'Request must contain atleast one recipient');\r\n        require(_recipientsAddress.length == _recipientsAmount.length,'There should be equal no. of recipients addresses and amounts');\r\n        require(amountCollected - amountSpended - amountDelegated >= _amount, \"Campaign don't have enough funds for your request.\");\r\n        \r\n        uint totalAmount = 0;\r\n        for(uint i; i < _recipientsAmount.length; i++){\r\n            totalAmount += _recipientsAmount[i];   \r\n        }\r\n        \r\n        require(totalAmount == _amount, \"Total amount delegated to recipients must be equal to the total amount in the request\");\r\n        \r\n        fundRequests.push(\r\n            FundRequest({description: _description, amount: _amount, recipientsCount: 0, createdAt: now, disapproversCount: 0, isCompleted: false})\r\n        );\r\n        //get the added request\r\n        FundRequest storage request = fundRequests[fundRequests.length - 1];\r\n        \r\n        mapping(uint=>Person) storage recipients = request.recipients;\r\n        //add the recipients\r\n        for(uint i = 0; i < _recipientsAddress.length; i++){\r\n            recipients[i] = Person({personAddress: _recipientsAddress[i], amount: _recipientsAmount[i]});\r\n            request.recipientsCount++;\r\n        }\r\n        \r\n        amountDelegated = _amount;\r\n    }\r\n    \r\n    function disapproveFundRequest(uint index) onlyDonor public{\r\n        require(index > 0, 'Index should be greater than zero');\r\n        require(index < fundRequests.length, \"Fund Request don't exist.\");\r\n        \r\n        fundRequests[index].disapprovers[msg.sender] = true;\r\n        fundRequests[index].disapproversCount++;\r\n    }\r\n    \r\n    function approveFundRequest(uint index) onlyDonor public{\r\n        require(index > 0, 'Index should be greater than zero');\r\n        require(index < fundRequests.length, \"Fund Request don't exist.\");\r\n        \r\n        mapping(address=>bool) storage disapprovers = fundRequests[index].disapprovers;\r\n        \r\n        //only approve if donor disapproved the request before\r\n        if(disapprovers[msg.sender]){\r\n            //make aprover again\r\n            disapprovers[msg.sender] = false;\r\n            //decrease the disapprovers count\r\n            fundRequests[index].disapproversCount--;\r\n        }\r\n    }\r\n    \r\n    function processFundRequest(uint index) onlyManager public{\r\n\r\n        FundRequest storage request = fundRequests[index];\r\n        if(\r\n            request.createdAt + fundRequestProcessTime > now && \r\n            request.disapproversCount < donorsList.length &&\r\n            !request.isCompleted  \r\n          ){\r\n            request.isCompleted = true;\r\n            amountDelegated -= request.amount;\r\n            amountSpended += request.amount;\r\n            for(uint i = 0; i < request.recipientsCount; i++){\r\n                Person storage recipient = request.recipients[i];\r\n                //convert address to address payable (NOTE: this conversion differs around different versions of solidity)\r\n                address(uint160(recipient.personAddress)).transfer(recipient.amount);\r\n            }\r\n        }\r\n    }\r\n    \r\n    function getSummary()public view returns(\r\n        address, string memory, string memory, uint, uint, uint, uint, uint, uint, uint, uint, uint\r\n        ){\r\n        return (\r\n            manager,\r\n            title,\r\n            description,\r\n            amountInitialGoal,\r\n            amountCollected,\r\n            amountDelegated,\r\n            amountSpended,\r\n            fundRequestProcessTime,\r\n            createdAt,\r\n            closedAt,\r\n            donorsList.length,\r\n            fundRequests.length\r\n            );\r\n    }\r\n    \r\n}",
  "sourcePath": "F:\\Software Development\\React Projects\\de-care\\ethereum\\contracts\\Campaign.sol",
  "compiler": {
    "name": "solc",
    "version": "0.5.16+commit.9c3226ce.Emscripten.clang"
  },
  "schemaVersion": "3.2.2",
  "updatedAt": "2020-07-26T07:38:26.563Z",
  "devdoc": {
    "methods": {}
  },
  "userdoc": {
    "methods": {}
  }
}