{
  "contractName": "Campaign",
  "abi": [
    {
      "inputs": [
        {
          "internalType": "address",
          "name": "_manager",
          "type": "address"
        },
        {
          "internalType": "string",
          "name": "_title",
          "type": "string"
        },
        {
          "internalType": "string",
          "name": "_description",
          "type": "string"
        },
        {
          "internalType": "uint256",
          "name": "_initialAmountGoal",
          "type": "uint256"
        },
        {
          "internalType": "uint256",
          "name": "_createdAt",
          "type": "uint256"
        },
        {
          "internalType": "uint256",
          "name": "_closedAt",
          "type": "uint256"
        }
      ],
      "payable": false,
      "stateMutability": "nonpayable",
      "type": "constructor"
    },
    {
      "constant": true,
      "inputs": [],
      "name": "amountCollected",
      "outputs": [
        {
          "internalType": "uint256",
          "name": "",
          "type": "uint256"
        }
      ],
      "payable": false,
      "stateMutability": "view",
      "type": "function"
    },
    {
      "constant": true,
      "inputs": [],
      "name": "amountDelegated",
      "outputs": [
        {
          "internalType": "uint256",
          "name": "",
          "type": "uint256"
        }
      ],
      "payable": false,
      "stateMutability": "view",
      "type": "function"
    },
    {
      "constant": true,
      "inputs": [],
      "name": "amountInitialGoal",
      "outputs": [
        {
          "internalType": "uint256",
          "name": "",
          "type": "uint256"
        }
      ],
      "payable": false,
      "stateMutability": "view",
      "type": "function"
    },
    {
      "constant": true,
      "inputs": [],
      "name": "amountSpended",
      "outputs": [
        {
          "internalType": "uint256",
          "name": "",
          "type": "uint256"
        }
      ],
      "payable": false,
      "stateMutability": "view",
      "type": "function"
    },
    {
      "constant": true,
      "inputs": [],
      "name": "closedAt",
      "outputs": [
        {
          "internalType": "uint256",
          "name": "",
          "type": "uint256"
        }
      ],
      "payable": false,
      "stateMutability": "view",
      "type": "function"
    },
    {
      "constant": true,
      "inputs": [],
      "name": "createdAt",
      "outputs": [
        {
          "internalType": "uint256",
          "name": "",
          "type": "uint256"
        }
      ],
      "payable": false,
      "stateMutability": "view",
      "type": "function"
    },
    {
      "constant": true,
      "inputs": [],
      "name": "description",
      "outputs": [
        {
          "internalType": "string",
          "name": "",
          "type": "string"
        }
      ],
      "payable": false,
      "stateMutability": "view",
      "type": "function"
    },
    {
      "constant": true,
      "inputs": [
        {
          "internalType": "address",
          "name": "",
          "type": "address"
        }
      ],
      "name": "donors",
      "outputs": [
        {
          "internalType": "uint256",
          "name": "",
          "type": "uint256"
        }
      ],
      "payable": false,
      "stateMutability": "view",
      "type": "function"
    },
    {
      "constant": true,
      "inputs": [
        {
          "internalType": "uint256",
          "name": "",
          "type": "uint256"
        }
      ],
      "name": "donorsList",
      "outputs": [
        {
          "internalType": "address",
          "name": "personAddress",
          "type": "address"
        },
        {
          "internalType": "uint256",
          "name": "amount",
          "type": "uint256"
        }
      ],
      "payable": false,
      "stateMutability": "view",
      "type": "function"
    },
    {
      "constant": true,
      "inputs": [],
      "name": "fundRequestProcessTime",
      "outputs": [
        {
          "internalType": "uint256",
          "name": "",
          "type": "uint256"
        }
      ],
      "payable": false,
      "stateMutability": "view",
      "type": "function"
    },
    {
      "constant": true,
      "inputs": [],
      "name": "isActive",
      "outputs": [
        {
          "internalType": "bool",
          "name": "",
          "type": "bool"
        }
      ],
      "payable": false,
      "stateMutability": "view",
      "type": "function"
    },
    {
      "constant": true,
      "inputs": [],
      "name": "manager",
      "outputs": [
        {
          "internalType": "address",
          "name": "",
          "type": "address"
        }
      ],
      "payable": false,
      "stateMutability": "view",
      "type": "function"
    },
    {
      "constant": true,
      "inputs": [],
      "name": "title",
      "outputs": [
        {
          "internalType": "string",
          "name": "",
          "type": "string"
        }
      ],
      "payable": false,
      "stateMutability": "view",
      "type": "function"
    },
    {
      "constant": false,
      "inputs": [],
      "name": "donate",
      "outputs": [],
      "payable": true,
      "stateMutability": "payable",
      "type": "function"
    },
    {
      "constant": false,
      "inputs": [],
      "name": "withdrawDonation",
      "outputs": [
        {
          "internalType": "uint256",
          "name": "",
          "type": "uint256"
        }
      ],
      "payable": false,
      "stateMutability": "nonpayable",
      "type": "function"
    },
    {
      "constant": false,
      "inputs": [
        {
          "internalType": "string",
          "name": "_description",
          "type": "string"
        },
        {
          "internalType": "uint256",
          "name": "_amount",
          "type": "uint256"
        },
        {
          "internalType": "address[]",
          "name": "_recipientsAddress",
          "type": "address[]"
        },
        {
          "internalType": "uint256[]",
          "name": "_recipientsAmount",
          "type": "uint256[]"
        }
      ],
      "name": "createFundRequest",
      "outputs": [],
      "payable": false,
      "stateMutability": "nonpayable",
      "type": "function"
    },
    {
      "constant": false,
      "inputs": [
        {
          "internalType": "uint256",
          "name": "index",
          "type": "uint256"
        }
      ],
      "name": "disapproveFundRequest",
      "outputs": [],
      "payable": false,
      "stateMutability": "nonpayable",
      "type": "function"
    },
    {
      "constant": false,
      "inputs": [
        {
          "internalType": "uint256",
          "name": "index",
          "type": "uint256"
        }
      ],
      "name": "approveFundRequest",
      "outputs": [],
      "payable": false,
      "stateMutability": "nonpayable",
      "type": "function"
    },
    {
      "constant": false,
      "inputs": [
        {
          "internalType": "uint256",
          "name": "index",
          "type": "uint256"
        }
      ],
      "name": "processFundRequest",
      "outputs": [],
      "payable": false,
      "stateMutability": "nonpayable",
      "type": "function"
    },
    {
      "constant": true,
      "inputs": [
        {
          "internalType": "uint256",
          "name": "index",
          "type": "uint256"
        }
      ],
      "name": "getFundRequest",
      "outputs": [
        {
          "internalType": "string",
          "name": "",
          "type": "string"
        },
        {
          "internalType": "uint256",
          "name": "",
          "type": "uint256"
        },
        {
          "internalType": "uint256",
          "name": "",
          "type": "uint256"
        },
        {
          "internalType": "uint256",
          "name": "",
          "type": "uint256"
        },
        {
          "internalType": "uint256",
          "name": "",
          "type": "uint256"
        },
        {
          "internalType": "bool",
          "name": "",
          "type": "bool"
        },
        {
          "internalType": "bool",
          "name": "",
          "type": "bool"
        },
        {
          "internalType": "address[]",
          "name": "",
          "type": "address[]"
        },
        {
          "internalType": "uint256[]",
          "name": "",
          "type": "uint256[]"
        }
      ],
      "payable": false,
      "stateMutability": "view",
      "type": "function"
    },
    {
      "constant": true,
      "inputs": [],
      "name": "getSummary",
      "outputs": [
        {
          "internalType": "address",
          "name": "",
          "type": "address"
        },
        {
          "internalType": "string",
          "name": "",
          "type": "string"
        },
        {
          "internalType": "string",
          "name": "",
          "type": "string"
        },
        {
          "internalType": "uint256",
          "name": "",
          "type": "uint256"
        },
        {
          "internalType": "uint256",
          "name": "",
          "type": "uint256"
        },
        {
          "internalType": "uint256",
          "name": "",
          "type": "uint256"
        },
        {
          "internalType": "uint256",
          "name": "",
          "type": "uint256"
        },
        {
          "internalType": "uint256",
          "name": "",
          "type": "uint256"
        },
        {
          "internalType": "uint256",
          "name": "",
          "type": "uint256"
        },
        {
          "internalType": "uint256",
          "name": "",
          "type": "uint256"
        },
        {
          "internalType": "uint256",
          "name": "",
          "type": "uint256"
        },
        {
          "internalType": "uint256",
          "name": "",
          "type": "uint256"
        },
        {
          "internalType": "bool",
          "name": "",
          "type": "bool"
        }
      ],
      "payable": false,
      "stateMutability": "view",
      "type": "function"
    },
    {
      "constant": false,
      "inputs": [
        {
          "internalType": "uint256",
          "name": "processTime",
          "type": "uint256"
        }
      ],
      "name": "setFundRequestProcessTime",
      "outputs": [],
      "payable": false,
      "stateMutability": "nonpayable",
      "type": "function"
    },
    {
      "constant": false,
      "inputs": [],
      "name": "deactivate",
      "outputs": [],
      "payable": false,
      "stateMutability": "nonpayable",
      "type": "function"
    }
  ],
  "bytecode": "0x60806040523480156200001157600080fd5b506040516200311938038062003119833981810160405260c08110156200003757600080fd5b8101908080519060200190929190805160405193929190846401000000008211156200006257600080fd5b838201915060208201858111156200007957600080fd5b82518660018202830111640100000000821117156200009757600080fd5b8083526020830192505050908051906020019080838360005b83811015620000cd578082015181840152602081019050620000b0565b50505050905090810190601f168015620000fb5780820380516001836020036101000a031916815260200191505b50604052602001805160405193929190846401000000008211156200011f57600080fd5b838201915060208201858111156200013657600080fd5b82518660018202830111640100000000821117156200015457600080fd5b8083526020830192505050908051906020019080838360005b838110156200018a5780820151818401526020810190506200016d565b50505050905090810190601f168015620001b85780820380516001836020036101000a031916815260200191505b506040526020018051906020019092919080519060200190929190805190602001909291905050508181116200023a576040517f08c379a000000000000000000000000000000000000000000000000000000000815260040180806020018281038252602f815260200180620030ea602f913960400191505060405180910390fd5b6000831162000295576040517f08c379a000000000000000000000000000000000000000000000000000000000815260040180806020018281038252602e815260200180620030bc602e913960400191505060405180910390fd5b856000806101000a81548173ffffffffffffffffffffffffffffffffffffffff021916908373ffffffffffffffffffffffffffffffffffffffff1602179055508460019080519060200190620002ed929190620003fb565b50836002908051906020019062000306929190620003fb565b508260038190555081600b8190555080600c819055506203f480600a819055506001600d60006101000a81548160ff02191690831515021790555060076040518060400160405280600073ffffffffffffffffffffffffffffffffffffffff16815260200160008152509080600181540180825580915050906001820390600052602060002090600202016000909192909190915060008201518160000160006101000a81548173ffffffffffffffffffffffffffffffffffffffff021916908373ffffffffffffffffffffffffffffffffffffffff16021790555060208201518160010155505050505050505050620004aa565b828054600181600116156101000203166002900490600052602060002090601f016020900481019282601f106200043e57805160ff19168380011785556200046f565b828001600101855582156200046f579182015b828111156200046e57825182559160200191906001019062000451565b5b5090506200047e919062000482565b5090565b620004a791905b80821115620004a357600081600090555060010162000489565b5090565b90565b612c0280620004ba6000396000f3fe6080604052600436106101405760003560e01c806360713609116100b6578063a96271361161006f578063a96271361461099e578063ca0cdea814610a20578063cf09e0d014610a85578063d2765c9414610ab0578063e81e1ccc14610aeb578063ed88c68e14610b1657610140565b806360713609146108275780636a3d9a4a146108525780637284e4161461087d578063777016fb1461090d57806396f8b38d146109385780639ef27b001461097357610140565b80634051ddac116101085780634051ddac1461040f578063481c6a75146105885780634a79d50c146105df5780634dfa84341461066f57806351b42b00146107e55780635c8d7152146107fc57610140565b80631b0f5fc21461014557806321464bfe1461018057806322f3e2d4146101bb578063332f7acf146101ea578063372bfd9c14610215575b600080fd5b34801561015157600080fd5b5061017e6004803603602081101561016857600080fd5b8101908080359060200190929190505050610b20565b005b34801561018c57600080fd5b506101b9600480360360208110156101a357600080fd5b8101908080359060200190929190505050610dee565b005b3480156101c757600080fd5b506101d061110f565b604051808215151515815260200191505060405180910390f35b3480156101f657600080fd5b506101ff611122565b6040518082815260200191505060405180910390f35b34801561022157600080fd5b5061040d6004803603608081101561023857600080fd5b810190808035906020019064010000000081111561025557600080fd5b82018360208201111561026757600080fd5b8035906020019184600183028401116401000000008311171561028957600080fd5b91908080601f016020809104026020016040519081016040528093929190818152602001838380828437600081840152601f19601f82011690508083019250505050505050919291929080359060200190929190803590602001906401000000008111156102f657600080fd5b82018360208201111561030857600080fd5b8035906020019184602083028401116401000000008311171561032a57600080fd5b919080806020026020016040519081016040528093929190818152602001838360200280828437600081840152601f19601f8201169050808301925050505050505091929192908035906020019064010000000081111561038a57600080fd5b82018360208201111561039c57600080fd5b803590602001918460208302840111640100000000831117156103be57600080fd5b919080806020026020016040519081016040528093929190818152602001838360200280828437600081840152601f19601f820116905080830192505050505050509192919290505050611128565b005b34801561041b57600080fd5b506104246116e0565b604051808e73ffffffffffffffffffffffffffffffffffffffff1673ffffffffffffffffffffffffffffffffffffffff16815260200180602001806020018d81526020018c81526020018b81526020018a81526020018981526020018881526020018781526020018681526020018581526020018415151515815260200183810383528f818151815260200191508051906020019080838360005b838110156104da5780820151818401526020810190506104bf565b50505050905090810190601f1680156105075780820380516001836020036101000a031916815260200191505b5083810382528e818151815260200191508051906020019080838360005b83811015610540578082015181840152602081019050610525565b50505050905090810190601f16801561056d5780820380516001836020036101000a031916815260200191505b509f5050505050505050505050505050505060405180910390f35b34801561059457600080fd5b5061059d6118ac565b604051808273ffffffffffffffffffffffffffffffffffffffff1673ffffffffffffffffffffffffffffffffffffffff16815260200191505060405180910390f35b3480156105eb57600080fd5b506105f46118d1565b6040518080602001828103825283818151815260200191508051906020019080838360005b83811015610634578082015181840152602081019050610619565b50505050905090810190601f1680156106615780820380516001836020036101000a031916815260200191505b509250505060405180910390f35b34801561067b57600080fd5b506106a86004803603602081101561069257600080fd5b810190808035906020019092919050505061196f565b60405180806020018a81526020018981526020018881526020018781526020018615151515815260200185151515158152602001806020018060200184810384528d818151815260200191508051906020019080838360005b8381101561071c578082015181840152602081019050610701565b50505050905090810190601f1680156107495780820380516001836020036101000a031916815260200191505b50848103835286818151815260200191508051906020019060200280838360005b8381101561078557808201518184015260208101905061076a565b50505050905001848103825285818151815260200191508051906020019060200280838360005b838110156107c75780820151818401526020810190506107ac565b505050509050019c5050505050505050505050505060405180910390f35b3480156107f157600080fd5b506107fa611c92565b005b34801561080857600080fd5b50610811611db0565b6040518082815260200191505060405180910390f35b34801561083357600080fd5b5061083c611db6565b6040518082815260200191505060405180910390f35b34801561085e57600080fd5b50610867611dbc565b6040518082815260200191505060405180910390f35b34801561088957600080fd5b50610892611dc2565b6040518080602001828103825283818151815260200191508051906020019080838360005b838110156108d25780820151818401526020810190506108b7565b50505050905090810190601f1680156108ff5780820380516001836020036101000a031916815260200191505b509250505060405180910390f35b34801561091957600080fd5b50610922611e60565b6040518082815260200191505060405180910390f35b34801561094457600080fd5b506109716004803603602081101561095b57600080fd5b8101908080359060200190929190505050611e66565b005b34801561097f57600080fd5b50610988611f9e565b6040518082815260200191505060405180910390f35b3480156109aa57600080fd5b506109d7600480360360208110156109c157600080fd5b8101908080359060200190929190505050611fa4565b604051808373ffffffffffffffffffffffffffffffffffffffff1673ffffffffffffffffffffffffffffffffffffffff1681526020018281526020019250505060405180910390f35b348015610a2c57600080fd5b50610a6f60048036036020811015610a4357600080fd5b81019080803573ffffffffffffffffffffffffffffffffffffffff169060200190929190505050611ff5565b6040518082815260200191505060405180910390f35b348015610a9157600080fd5b50610a9a61200d565b6040518082815260200191505060405180910390f35b348015610abc57600080fd5b50610ae960048036036020811015610ad357600080fd5b8101908080359060200190929190505050612013565b005b348015610af757600080fd5b50610b00612349565b6040518082815260200191505060405180910390f35b610b1e61261f565b005b60011515600d60009054906101000a900460ff16151514610ba9576040517f08c379a00000000000000000000000000000000000000000000000000000000081526004018080602001828103825260128152602001807f436f6e747261637420697320636c6f736564000000000000000000000000000081525060200191505060405180910390fd5b3373ffffffffffffffffffffffffffffffffffffffff166000809054906101000a900473ffffffffffffffffffffffffffffffffffffffff1673ffffffffffffffffffffffffffffffffffffffff1614610c4e576040517f08c379a0000000000000000000000000000000000000000000000000000000008152600401808060200182810382526023815260200180612a476023913960400191505060405180910390fd5b600060098281548110610c5d57fe5b9060005260206000209060080201905042600a54826006015401108015610c8c57506007805490508160050154105b8015610ca757508060070160009054906101000a900460ff16155b610cfc576040517f08c379a0000000000000000000000000000000000000000000000000000000008152600401808060200182810382526070815260200180612b5e6070913960800191505060405180910390fd5b60018160070160006101000a81548160ff0219169083151502179055508060010154600560008282540392505081905550806001015460066000828254019250508190555060008090505b8160030154811015610de957600082600201600083815260200190815260200160002090508060000160009054906101000a900473ffffffffffffffffffffffffffffffffffffffff1673ffffffffffffffffffffffffffffffffffffffff166108fc82600101549081150290604051600060405180830381858888f19350505050158015610dda573d6000803e3d6000fd5b50508080600101915050610d47565b505050565b60011515600d60009054906101000a900460ff16151514610e77576040517f08c379a00000000000000000000000000000000000000000000000000000000081526004018080602001828103825260128152602001807f436f6e747261637420697320636c6f736564000000000000000000000000000081525060200191505060405180910390fd5b6000600860003373ffffffffffffffffffffffffffffffffffffffff1673ffffffffffffffffffffffffffffffffffffffff1681526020019081526020016000205411610f0f576040517f08c379a0000000000000000000000000000000000000000000000000000000008152600401808060200182810382526022815260200180612a6a6022913960400191505060405180910390fd5b6009805490508110610f89576040517f08c379a00000000000000000000000000000000000000000000000000000000081526004018080602001828103825260198152602001807f46756e64205265717565737420646f6e27742065786973742e0000000000000081525060200191505060405180910390fd5b6000151560098281548110610f9a57fe5b906000526020600020906008020160070160009054906101000a900460ff16151514611011576040517f08c379a00000000000000000000000000000000000000000000000000000000081526004018080602001828103825260238152602001806129c86023913960400191505060405180910390fd5b60006009828154811061102057fe5b906000526020600020906008020160040190508060003373ffffffffffffffffffffffffffffffffffffffff1673ffffffffffffffffffffffffffffffffffffffff16815260200190815260200160002060009054906101000a900460ff161561110b5760008160003373ffffffffffffffffffffffffffffffffffffffff1673ffffffffffffffffffffffffffffffffffffffff16815260200190815260200160002060006101000a81548160ff021916908315150217905550600982815481106110e857fe5b906000526020600020906008020160050160008154809291906001900391905055505b5050565b600d60009054906101000a900460ff1681565b60045481565b60011515600d60009054906101000a900460ff161515146111b1576040517f08c379a00000000000000000000000000000000000000000000000000000000081526004018080602001828103825260128152602001807f436f6e747261637420697320636c6f736564000000000000000000000000000081525060200191505060405180910390fd5b3373ffffffffffffffffffffffffffffffffffffffff166000809054906101000a900473ffffffffffffffffffffffffffffffffffffffff1673ffffffffffffffffffffffffffffffffffffffff1614611256576040517f08c379a0000000000000000000000000000000000000000000000000000000008152600401808060200182810382526023815260200180612a476023913960400191505060405180910390fd5b42600c5411801561126b575060035460045410155b6112c0576040517f08c379a00000000000000000000000000000000000000000000000000000000081526004018080602001828103825260238152602001806129686023913960400191505060405180910390fd5b60008311611336576040517f08c379a00000000000000000000000000000000000000000000000000000000081526004018080602001828103825260168152602001807f416d6f756e742063616e6e6f74206265207a65726f2e0000000000000000000081525060200191505060405180910390fd5b60008251118015611348575060008151115b61139d576040517f08c379a000000000000000000000000000000000000000000000000000000000815260040180806020018281038252602a8152602001806129eb602a913960400191505060405180910390fd5b80518251146113f7576040517f08c379a000000000000000000000000000000000000000000000000000000000815260040180806020018281038252603d81526020018061298b603d913960400191505060405180910390fd5b826005546006546004540303101561145a576040517f08c379a0000000000000000000000000000000000000000000000000000000008152600401808060200182810382526032815260200180612a156032913960400191505060405180910390fd5b600080905060005b82518110156114905782818151811061147757fe5b6020026020010151820191508080600101915050611462565b508381146114e9576040517f08c379a0000000000000000000000000000000000000000000000000000000008152600401808060200182810382526055815260200180612ac56055913960600191505060405180910390fd5b60096040518060c001604052808781526020018681526020016000815260200160008152602001428152602001600015158152509080600181540180825580915050906001820390600052602060002090600802016000909192909190915060008201518160000190805190602001906115649291906128c2565b506020820151816001015560408201518160030155606082015181600501556080820151816006015560a08201518160070160006101000a81548160ff02191690831515021790555050505060006009600160098054905003815481106115c757fe5b90600052602060002090600802019050600081600201905060008090505b85518110156116c657604051806040016040528087838151811061160557fe5b602002602001015173ffffffffffffffffffffffffffffffffffffffff16815260200186838151811061163457fe5b602002602001015181525082600083815260200190815260200160002060008201518160000160006101000a81548173ffffffffffffffffffffffffffffffffffffffff021916908373ffffffffffffffffffffffffffffffffffffffff16021790555060208201518160010155905050826003016000815480929190600101919050555080806001019150506115e5565b508560056000828254019250508190555050505050505050565b60006060806000806000806000806000806000806000809054906101000a900473ffffffffffffffffffffffffffffffffffffffff1660016002600354600454600554600654600a54600b54600c54600780549050600980549050600d60009054906101000a900460ff168b8054600181600116156101000203166002900480601f0160208091040260200160405190810160405280929190818152602001828054600181600116156101000203166002900480156117e05780601f106117b5576101008083540402835291602001916117e0565b820191906000526020600020905b8154815290600101906020018083116117c357829003601f168201915b50505050509b508a8054600181600116156101000203166002900480601f01602080910402602001604051908101604052809291908181526020018280546001816001161561010002031660029004801561187c5780601f106118515761010080835404028352916020019161187c565b820191906000526020600020905b81548152906001019060200180831161185f57829003601f168201915b50505050509a509c509c509c509c509c509c509c509c509c509c509c509c509c50909192939495969798999a9b9c565b6000809054906101000a900473ffffffffffffffffffffffffffffffffffffffff1681565b60018054600181600116156101000203166002900480601f0160208091040260200160405190810160405280929190818152602001828054600181600116156101000203166002900480156119675780601f1061193c57610100808354040283529160200191611967565b820191906000526020600020905b81548152906001019060200180831161194a57829003601f168201915b505050505081565b606060008060008060008060608089600160098054905001116119fa576040517f08c379a00000000000000000000000000000000000000000000000000000000081526004018080602001828103825260168152602001807f496e646578206973206f7574206f662072616e67652e0000000000000000000081525060200191505060405180910390fd5b600060098b81548110611a0957fe5b9060005260206000209060080201905060608160030154604051908082528060200260200182016040528015611a4e5781602001602082028038833980820191505090505b50905060608260030154604051908082528060200260200182016040528015611a865781602001602082028038833980820191505090505b50905060008090505b8360030154811015611b585783600201600082815260200190815260200160002060000160009054906101000a900473ffffffffffffffffffffffffffffffffffffffff16838281518110611ae057fe5b602002602001019073ffffffffffffffffffffffffffffffffffffffff16908173ffffffffffffffffffffffffffffffffffffffff168152505083600201600082815260200190815260200160002060010154828281518110611b3f57fe5b6020026020010181815250508080600101915050611a8f565b508260000183600101548460030154856005015486600601548760070160009054906101000a900460ff168860040160003373ffffffffffffffffffffffffffffffffffffffff1673ffffffffffffffffffffffffffffffffffffffff16815260200190815260200160002060009054906101000a900460ff168888888054600181600116156101000203166002900480601f016020809104026020016040519081016040528092919081815260200182805460018160011615610100020316600290048015611c695780601f10611c3e57610100808354040283529160200191611c69565b820191906000526020600020905b815481529060010190602001808311611c4c57829003601f168201915b505050505098509b509b509b509b509b509b509b509b509b505050509193959799909294969850565b3373ffffffffffffffffffffffffffffffffffffffff166000809054906101000a900473ffffffffffffffffffffffffffffffffffffffff1673ffffffffffffffffffffffffffffffffffffffff1614611d37576040517f08c379a0000000000000000000000000000000000000000000000000000000008152600401808060200182810382526023815260200180612a476023913960400191505060405180910390fd5b60065460045414611d93576040517f08c379a0000000000000000000000000000000000000000000000000000000008152600401808060200182810382526044815260200180612b1a6044913960600191505060405180910390fd5b6000600d60006101000a81548160ff021916908315150217905550565b60065481565b60055481565b60035481565b60028054600181600116156101000203166002900480601f016020809104026020016040519081016040528092919081815260200182805460018160011615610100020316600290048015611e585780601f10611e2d57610100808354040283529160200191611e58565b820191906000526020600020905b815481529060010190602001808311611e3b57829003601f168201915b505050505081565b600a5481565b60011515600d60009054906101000a900460ff16151514611eef576040517f08c379a00000000000000000000000000000000000000000000000000000000081526004018080602001828103825260128152602001807f436f6e747261637420697320636c6f736564000000000000000000000000000081525060200191505060405180910390fd5b3373ffffffffffffffffffffffffffffffffffffffff166000809054906101000a900473ffffffffffffffffffffffffffffffffffffffff1673ffffffffffffffffffffffffffffffffffffffff1614611f94576040517f08c379a0000000000000000000000000000000000000000000000000000000008152600401808060200182810382526023815260200180612a476023913960400191505060405180910390fd5b80600a8190555050565b600c5481565b60078181548110611fb157fe5b90600052602060002090600202016000915090508060000160009054906101000a900473ffffffffffffffffffffffffffffffffffffffff16908060010154905082565b60086020528060005260406000206000915090505481565b600b5481565b60011515600d60009054906101000a900460ff1615151461209c576040517f08c379a00000000000000000000000000000000000000000000000000000000081526004018080602001828103825260128152602001807f436f6e747261637420697320636c6f736564000000000000000000000000000081525060200191505060405180910390fd5b6000600860003373ffffffffffffffffffffffffffffffffffffffff1673ffffffffffffffffffffffffffffffffffffffff1681526020019081526020016000205411612134576040517f08c379a0000000000000000000000000000000000000000000000000000000008152600401808060200182810382526022815260200180612a6a6022913960400191505060405180910390fd5b60098054905081106121ae576040517f08c379a00000000000000000000000000000000000000000000000000000000081526004018080602001828103825260198152602001807f46756e64205265717565737420646f6e27742065786973742e0000000000000081525060200191505060405180910390fd5b60001515600982815481106121bf57fe5b906000526020600020906008020160070160009054906101000a900460ff16151514612236576040517f08c379a00000000000000000000000000000000000000000000000000000000081526004018080602001828103825260238152602001806129c86023913960400191505060405180910390fd5b6009818154811061224357fe5b906000526020600020906008020160040160003373ffffffffffffffffffffffffffffffffffffffff1673ffffffffffffffffffffffffffffffffffffffff16815260200190815260200160002060009054906101000a900460ff16612346576001600982815481106122b257fe5b906000526020600020906008020160040160003373ffffffffffffffffffffffffffffffffffffffff1673ffffffffffffffffffffffffffffffffffffffff16815260200190815260200160002060006101000a81548160ff0219169083151502179055506009818154811061232457fe5b9060005260206000209060080201600501600081548092919060010191905055505b50565b600060011515600d60009054906101000a900460ff161515146123d4576040517f08c379a00000000000000000000000000000000000000000000000000000000081526004018080602001828103825260128152602001807f436f6e747261637420697320636c6f736564000000000000000000000000000081525060200191505060405180910390fd5b60035460045410806123e7575042600c54115b612459576040517f08c379a000000000000000000000000000000000000000000000000000000000815260040180806020018281038252601c8152602001807f446f6e6174696f6e2063616e6e6f742062652077697468647261776e0000000081525060200191505060405180910390fd5b6000600860003373ffffffffffffffffffffffffffffffffffffffff1673ffffffffffffffffffffffffffffffffffffffff168152602001908152602001600020549050600081116124f6576040517f08c379a0000000000000000000000000000000000000000000000000000000008152600401808060200182810382526039815260200180612a8c6039913960400191505060405180910390fd5b60006007828154811061250557fe5b90600052602060002090600202016001015490506000811115612615576000600860003373ffffffffffffffffffffffffffffffffffffffff1673ffffffffffffffffffffffffffffffffffffffff168152602001908152602001600020819055506007828154811061257457fe5b9060005260206000209060020201600080820160006101000a81549073ffffffffffffffffffffffffffffffffffffffff021916905560018201600090555050806004600082825403925050819055503373ffffffffffffffffffffffffffffffffffffffff166108fc829081150290604051600060405180830381858888f1935050505015801561260a573d6000803e3d6000fd5b50809250505061261c565b6000925050505b90565b60011515600d60009054906101000a900460ff161515146126a8576040517f08c379a00000000000000000000000000000000000000000000000000000000081526004018080602001828103825260128152602001807f436f6e747261637420697320636c6f736564000000000000000000000000000081525060200191505060405180910390fd5b600034141561271f576040517f08c379a00000000000000000000000000000000000000000000000000000000081526004018080602001828103825260208152602001807f416d6f756e74206d7573742062652067726561746572207468616e207a65726f81525060200191505060405180910390fd5b6000600860003373ffffffffffffffffffffffffffffffffffffffff1673ffffffffffffffffffffffffffffffffffffffff1681526020019081526020016000205490506000811415612865576001905080600860003373ffffffffffffffffffffffffffffffffffffffff1673ffffffffffffffffffffffffffffffffffffffff16815260200190815260200160002081905550600760405180604001604052803373ffffffffffffffffffffffffffffffffffffffff168152602001348152509080600181540180825580915050906001820390600052602060002090600202016000909192909190915060008201518160000160006101000a81548173ffffffffffffffffffffffffffffffffffffffff021916908373ffffffffffffffffffffffffffffffffffffffff160217905550602082015181600101555050506128af565b60006007828154811061287457fe5b90600052602060002090600202016001015490503481016007838154811061289857fe5b906000526020600020906002020160010181905550505b3460046000828254019250508190555050565b828054600181600116156101000203166002900490600052602060002090601f016020900481019282601f1061290357805160ff1916838001178555612931565b82800160010185558215612931579182015b82811115612930578251825591602001919060010190612915565b5b50905061293e9190612942565b5090565b61296491905b80821115612960576000816000905550600101612948565b5090565b9056fe43616d706169676e20636f756c646e277420726561636865642069747320676f616c2e54686572652073686f756c6420626520657175616c206e6f2e206f6620726563697069656e74732061646472657373657320616e6420616d6f756e7473526571756573742068617320616c7265616479206265656e20636f6d706c657465642e52657175657374206d75737420636f6e7461696e2061746c65617374206f6e6520726563697069656e7443616d706169676e20646f6e2774206861766520656e6f7567682066756e647320666f7220796f757220726571756573742e4f6e6c79204d616e616765722063616e2063616c6c20746869732066756e6374696f6e4f6e6c7920446f6e6f722063616e2063616c6c20746869732066756e6374696f6e73596f75206861766520746f206265206120646f6e6f7220696e206f7264657220746f20776974686472617720796f757220646f6e6174696f6e546f74616c20616d6f756e742064656c65676174656420746f20726563697069656e7473206d75737420626520657175616c20746f2074686520746f74616c20616d6f756e7420696e20746865207265717565737443616d706169676e2063616e6e6f7420626520636c6f7365642c2062656361757365206974207374696c6c2068617320736f6d6520756e7370656e6465642066756e647346756e6420526571756573742063616e6e6f742062652070726f6365737365642c20656974686572207468652072657175697265642074696d65206973206e6f74207265616368656420796574206f72206d6f737420646f6e6f72732068617320646973617070726f7665642069742ea265627a7a72315820fe6dd0c709c6c7ac0424dc9b6fb5ca7471bf99e9d1e86659a63a9f2d3940a6ca64736f6c63430005100032496e697469616c20616d6f756e7420676f616c20206d7573742062652067726561746572207468616e207a65726f43616d706169676e2073746172742074696d65206d757374206265206c657373207468616e20656e642074696d652e",
  "source": "pragma solidity ^0.5.16;\r\n\r\n//https://ethereum.stackexchange.com/questions/13167/are-there-well-solved-and-simple-storage-patterns-for-solidity\r\n\r\n//A campaign is a single project used to collect funds from donors and spend them for any number of tasks related to a project,\r\n//through fund request which is totally controlled by donors voting, if donors approve a request, it will be completed \r\n//and funds can be withdrawn otherwise funds are locked inside the contract.\r\ncontract Campaign{\r\n    \r\n    //Perosn model to hold a person's address & the delegated amount\r\n    struct Person{\r\n        address personAddress;\r\n        uint amount;\r\n    }\r\n    \r\n    //Fund request, required to take out  funds from this Campaign through requests for different tasks,\r\n    //it takes three days for a request to complete, and requires alteast 51% donors approval to proceed,\r\n    //otherwise won't complete, after completion of the request, donation can be transfered to the recipients,\r\n    //whom were registered when the request was created.\r\n    //The request, by default is considered to be approved by the donors, but if donors want to disapprove a request,\r\n    //they have three days to explicitly disapprove it. After that, request would be considered approved by any donor,\r\n    //who didn't disapproved it.\r\n    struct FundRequest{\r\n        \r\n        //Breif description about the task\r\n        string description;\r\n        \r\n        //The amount required for the task\r\n        uint amount;\r\n        \r\n        //List of recipients, who will recieve the donation\r\n        mapping(uint=>Person) recipients;\r\n        \r\n        //recipients count\r\n        uint recipientsCount;\r\n        \r\n        //list of people who disapproves this request(by default request is considered to be approved by all donors,\r\n        //that's why we just need the disapprovers lists & count)\r\n        mapping(address=>bool) disapprovers;\r\n        \r\n        //disapprovers count\r\n        uint disapproversCount;\r\n        \r\n        //represents a timestamp at which this request was created\r\n        uint createdAt;\r\n        \r\n        //Indicates if the request is completed\r\n        bool isCompleted;\r\n    }\r\n    \r\n    //=============================Public Properties=======================================//\r\n    \r\n    //Manager: Owner of the contract, can request funds for different tasks\r\n    address public manager;\r\n    \r\n    //Campaign title\r\n    string public title;\r\n    \r\n    //Breif description of the Campaign\r\n    string public description;\r\n    \r\n    //Minimum amount of donation this contract must recieve to process the donations\r\n    uint public amountInitialGoal;\r\n    \r\n     //the total amount of donations collected\r\n    uint public amountCollected;\r\n    \r\n    //the amount delegated to fund requests\r\n    uint public amountDelegated;\r\n    \r\n    //the total amount spended by this Campaign\r\n    uint public amountSpended;\r\n    \r\n    //NOTE: donorsList starts at index 1 NOT at zero because we are tracking donors addresses for faster exists checks,\r\n    //in another mapping(see below \"donors\") of address and index of that address in this array pointing to its amount.\r\n    //\r\n    //Donations made by donors\r\n    Person[] public donorsList;\r\n    \r\n    //Donors address with and integer array pointing to donations array where donation amount is stored\r\n    mapping(address=>uint) public donors;\r\n    \r\n    //Fund request by manager for certain task, donors can disapprove this, if 51% donors disapprove the request it will be considered cancled\r\n    FundRequest[] fundRequests;\r\n    \r\n    //time required for a request to process if 51% of the donors approve it\r\n    uint public fundRequestProcessTime; \r\n    \r\n    //the timestamp at which the Campaign was created\r\n    uint public createdAt;\r\n    \r\n    //the timestamp the Campaign will be closed (after Campaign is closed donations will be locked in the contract)\r\n    uint public closedAt;\r\n    \r\n    //True till campaign is closed\r\n    bool public isActive;\r\n    \r\n     //=============================Modifiers=======================================//\r\n     \r\n    modifier onlyManager(){ require(manager == msg.sender,'Only Manager can call this function'); _; }\r\n    modifier onlyDonor(){ require( donors[msg.sender] > 0 ,'Only Donor can call this functions'); _; }\r\n    modifier ifActive(){ require( isActive == true , 'Contract is closed'); _; }\r\n    \r\n    //=============================Constructor=======================================//\r\n\r\n    constructor(address _manager, string memory _title, string memory _description, uint _initialAmountGoal, uint _createdAt, uint _closedAt) public{\r\n        require(_closedAt > _createdAt, 'Campaign start time must be less than end time.');\r\n        require(_initialAmountGoal > uint(0) , 'Initial amount goal  must be greater than zero');\r\n        \r\n        manager = _manager;\r\n        title = _title;\r\n        description = _description;\r\n        amountInitialGoal = _initialAmountGoal;\r\n        createdAt = _createdAt;\r\n        closedAt = _closedAt;\r\n        fundRequestProcessTime = 259200;//equal to three days\r\n        isActive = true;\r\n        donorsList.push(Person({personAddress: address(0x0), amount: 0}));\r\n    }\r\n\r\n    //=============================Public Methods=======================================//\r\n    \r\n    //To donate funds for this Campaign, users can donate as many times as they want\r\n    function donate() ifActive public payable {\r\n        require(msg.value != uint(0),'Amount must be greater than zero');\r\n        \r\n        uint index = donors[msg.sender];\r\n\r\n        //if donor hasn't donated any amount yet this would be true\r\n        if(index == 0){\r\n            index = 1;\r\n            \r\n            //add donor to mapping \r\n            donors[msg.sender] = index;\r\n\r\n            //add donor\r\n            donorsList.push(\r\n                Person({personAddress: msg.sender, amount: msg.value})\r\n                );\r\n        }\r\n        //if donor has donated before just add the new donation amount to the previous one\r\n        else{\r\n            \r\n            uint prevAmount = donorsList[index].amount;\r\n            donorsList[index].amount = prevAmount + msg.value;\r\n        }\r\n        \r\n        //increase amount collected count\r\n        amountCollected += msg.value;\r\n    }\r\n    \r\n    //To withdraw the donations for certain time if user wants before Campaign is closed and Campaign donation goal is not achieved,\r\n    //after thqt users will be able to donate but they won't be able to withdraw their donations\r\n    function withdrawDonation() ifActive public returns(uint) {\r\n        //donation can only be withdrawn in two cases\r\n        //1. if donation goal couldn't be reached\r\n        //2. if donation hasn't closed yet\r\n        require(amountCollected < amountInitialGoal || closedAt > now,'Donation cannot be withdrawn');\r\n        \r\n        uint index = donors[msg.sender];\r\n        \r\n        //if donor doesn't exist return\r\n        require(index > 0, \"You have to be a donor in order to withdraw your donation\");\r\n        \r\n        uint amount = donorsList[index].amount;\r\n        if(amount > 0)\r\n        {\r\n            // delete donor from mapping;\r\n            donors[msg.sender] = 0;\r\n            \r\n            //delete donor from list\r\n            delete donorsList[index];\r\n            \r\n            //detect the amount collected\r\n            amountCollected -= amount;\r\n            \r\n            //transfer funds\r\n            msg.sender.transfer(amount);\r\n            return amount;\r\n        }\r\n        return uint(0);\r\n    }\r\n    \r\n    function createFundRequest(string memory _description, uint _amount, address[] memory _recipientsAddress, uint[] memory _recipientsAmount) ifActive onlyManager public{\r\n        require(closedAt > now && amountCollected >=  amountInitialGoal,\"Campaign couldn't reached its goal.\");\r\n        require(_amount > 0,'Amount cannot be zero.');\r\n        require(_recipientsAddress.length > 0 && _recipientsAmount.length > 0, 'Request must contain atleast one recipient');\r\n        require(_recipientsAddress.length == _recipientsAmount.length,'There should be equal no. of recipients addresses and amounts');\r\n        require(amountCollected - amountSpended - amountDelegated >= _amount, \"Campaign don't have enough funds for your request.\");\r\n        \r\n        uint totalAmount = 0;\r\n        for(uint i; i < _recipientsAmount.length; i++){\r\n            totalAmount += _recipientsAmount[i];   \r\n        }\r\n        \r\n        require(totalAmount == _amount, \"Total amount delegated to recipients must be equal to the total amount in the request\");\r\n        \r\n        fundRequests.push(\r\n            FundRequest({description: _description, amount: _amount, recipientsCount: 0, createdAt: now, disapproversCount: 0, isCompleted: false})\r\n        );\r\n        //get the added request\r\n        FundRequest storage request = fundRequests[fundRequests.length - 1];\r\n        \r\n        mapping(uint=>Person) storage recipients = request.recipients;\r\n        //add the recipients\r\n        for(uint i = 0; i < _recipientsAddress.length; i++){\r\n            recipients[i] = Person({personAddress: _recipientsAddress[i], amount: _recipientsAmount[i]});\r\n            request.recipientsCount++;\r\n        }\r\n        \r\n        amountDelegated += _amount;\r\n    }\r\n    \r\n    function disapproveFundRequest(uint index) ifActive onlyDonor public{\r\n        require(index < fundRequests.length, \"Fund Request don't exist.\");\r\n        require(fundRequests[index].isCompleted == false,'Request has already been completed.');\r\n        \r\n        if(!fundRequests[index].disapprovers[msg.sender]){\r\n            fundRequests[index].disapprovers[msg.sender] = true;\r\n            fundRequests[index].disapproversCount++;\r\n        }\r\n    }\r\n    \r\n    function approveFundRequest(uint index) ifActive onlyDonor public{\r\n        require(index < fundRequests.length, \"Fund Request don't exist.\");\r\n        require(fundRequests[index].isCompleted == false,'Request has already been completed.');\r\n        \r\n        mapping(address=>bool) storage disapprovers = fundRequests[index].disapprovers;\r\n        \r\n        //only approve if donor disapproved the request before\r\n        if(disapprovers[msg.sender]){\r\n            //make aprover again\r\n            disapprovers[msg.sender] = false;\r\n            //decrease the disapprovers count\r\n            fundRequests[index].disapproversCount--;\r\n        }\r\n    }\r\n    \r\n    function processFundRequest(uint index) ifActive onlyManager public{\r\n\r\n        FundRequest storage request = fundRequests[index];\r\n        require(\r\n            request.createdAt + fundRequestProcessTime < now && \r\n            request.disapproversCount < donorsList.length &&\r\n            !request.isCompleted  \r\n          , \"Fund Request cannot be processed, either the required time is not reached yet or most donors has disapproved it.\");\r\n          \r\n            request.isCompleted = true;\r\n            amountDelegated -= request.amount;\r\n            amountSpended += request.amount;\r\n            for(uint i = 0; i < request.recipientsCount; i++){\r\n                Person storage recipient = request.recipients[i];\r\n                //convert address to address payable (NOTE: this conversion differs around different versions of solidity)\r\n                address(uint160(recipient.personAddress)).transfer(recipient.amount);\r\n            }\r\n        \r\n    }\r\n    \r\n    function getFundRequest(uint index) public view returns(string memory,uint, uint, uint, uint, bool, bool, address[]memory, uint[]memory){\r\n        require(fundRequests.length + 1 > index,\"Index is out of range.\");\r\n        \r\n        //get the recipients\r\n        FundRequest storage req = fundRequests[index];\r\n        address[] memory addresses = new address[](req.recipientsCount);\r\n        uint[] memory amounts = new uint[](req.recipientsCount);\r\n        \r\n        for(uint i = 0; i < req.recipientsCount; i++){\r\n            addresses[i] = req.recipients[i].personAddress;\r\n            amounts[i] = req.recipients[i].amount;\r\n        }\r\n        \r\n        return(\r\n            req.description,\r\n            req.amount,\r\n            req.recipientsCount,\r\n            req.disapproversCount,\r\n            req.createdAt,\r\n            req.isCompleted,\r\n            req.disapprovers[msg.sender],\r\n            addresses,\r\n            amounts\r\n            );\r\n    }\r\n\r\n    function getSummary()public view returns(\r\n        address, string memory, string memory, uint, uint, uint, uint, uint, uint, uint, uint, uint, bool\r\n        ){\r\n        return (\r\n            manager,\r\n            title,\r\n            description,\r\n            amountInitialGoal,\r\n            amountCollected,\r\n            amountDelegated,\r\n            amountSpended,\r\n            fundRequestProcessTime,\r\n            createdAt,\r\n            closedAt,\r\n            donorsList.length,\r\n            fundRequests.length,\r\n            isActive\r\n            );\r\n    }\r\n    \r\n    function setFundRequestProcessTime(uint processTime) ifActive  onlyManager  public {\r\n        fundRequestProcessTime = processTime;\r\n    }\r\n\r\n    function deactivate() onlyManager public {\r\n        require(amountCollected == amountSpended,\"Campaign cannot be closed, because it still has some unspended funds\");\r\n        isActive = false;\r\n    }\r\n    \r\n}",
  "sourcePath": "F:\\Software Development\\React Projects\\de-care\\ethereum\\contracts\\Campaign.sol",
  "compiler": {
    "name": "solc",
    "version": "0.5.16+commit.9c3226ce.Emscripten.clang"
  },
  "schemaVersion": "3.2.2",
  "updatedAt": "2020-08-10T20:19:35.448Z",
  "devdoc": {
    "methods": {}
  },
  "userdoc": {
    "methods": {}
  }
}